:100000000C9465000C9427140C9400140C948D002F
:100010000C948D000C948D000C948D000C948D002C
:100020000C948D000C948D000C948D000C948D001C
:100030000C948D000C948D000C948D000C948D000C
:100040000C94B6130C948D000C9484130C945E13D2
:100050000C948D000C948D000C948D000C948D00EC
:100060000C948D000C948D007C3C3E5E2B3D3F2F0C
:100070005B5D3B2C2A225C000000000800020100AE
:100080000003040700000000000000000000000062
:10009000250028002B0000000000240027002A0073
:1000A000040404040404040402020202020203031E
:1000B0000303030301020408102040800102040826
:1000C00010200102040810204E1411241FBECFEF8F
:1000D000D8E0DEBFCDBF11E0A0E0B1E0E4EAF0E39C
:1000E00002C005900D92AA34B107D9F724E0AAE422
:1000F000B1E001C01D92A736B207E1F710E0C5E6F6
:10010000D0E004C02197FE010E94EF16C436D1074B
:10011000C9F70E94A5140C9450180C940000CF93BA
:10012000DF93FC018281938190934B0480934A0476
:1001300084819581A681B78180934C0490934D046E
:10014000A0934E04B0934F0480859185A285B3851A
:100150008093500490935104A0935204B09353049D
:10016000DF011C96CF014996C4E5D4E02D91299377
:10017000A817B907D9F7818D928D90936204809367
:10018000610488E494E0DF91CF91089590E0FC0150
:10019000EC54FF4F249180569F4FFC01849188239B
:1001A00099F090E0880F991FFC01EA56FF4FA59146
:1001B000B491FC01E457FF4F859194918FB7F89467
:1001C000EC91E22BEC938FBF0895AF92BF92CF9248
:1001D000DF92EF92FF920F931F93CF93DF936C0107
:1001E0007B018B01040F151FEB015E01AE18BF08E8
:1001F000C017D10759F06991D601ED91FC9101909A
:10020000F081E02DC6010995892B79F7C501DF91B1
:10021000CF911F910F91FF90EF90DF90CF90BF9003
:10022000AF900895FC01538D448D252F30E0842F2D
:1002300090E0821B930B541710F0CF96089501970E
:100240000895FC01918D828D981761F0A28DAE0FFB
:10025000BF2FB11D5D968C91928D9F5F9F73928F82
:1002600090E008958FEF9FEF0895FC01918D828DAE
:10027000981731F0828DE80FF11D858D90E008957B
:100280008FEF9FEF0895FC01918D228D892F90E0D3
:10029000805C9F4F821B91098F739927089580E698
:1002A00093E00E94430121E0892B09F420E0822F92
:1002B000089580E090E0892B29F00E944F01811180
:1002C0000C9400000895FC01A48DA80FB92FB11D56
:1002D000A35ABF4F2C91848D90E001968F7399277C
:1002E000848FA689B7892C93A089B1898C9183705A
:1002F00080648C93938D848D981306C00288F38953
:10030000E02D80818F7D80830895EF92FF920F937F
:100310001F93CF93DF93EC0181E0888F9B8D8C8DB1
:1003200098131AC0E889F989808185FF15C09FB7A5
:10033000F894EE89FF896083E889F9898081837068
:10034000806480839FBF81E090E0DF91CF911F9117
:100350000F91FF90EF900895F62E0B8D10E00F5F38
:100360001F4F0F731127E02E8C8D8E110CC00FB60E
:1003700007FCFACFE889F989808185FFF5CFCE01A6
:100380000E946301F1CFEB8DEC0FFD2FF11DE35ABD
:10039000FF4FF0829FB7F8940B8FEA89FB89808129
:1003A0008062CFCF682F80E693E00C948501CF93D5
:1003B000DF93EC01888D8823B9F0AA89BB89E8898D
:1003C000F9898C9185FD03C0808186FD0DC00FB633
:1003D00007FCF7CF8C9185FFF2CF808185FFEDCFB1
:1003E000CE010E946301E9CFDF91CF91089590E0A3
:1003F000FC01E858FF4F2491FC01EC54FF4F34916D
:10040000FC01E056FF4FE491EE23C9F0222339F0BE
:10041000233001F1A8F4213019F1223029F1F0E064
:10042000EE0FFF1FE457FF4FA591B4918FB7F894DB
:10043000EC91611126C030953E233C938FBF089507
:100440002730A9F02830C9F0243049F78091800086
:100450008F7D03C0809180008F7780938000DFCFF5
:1004600084B58F7784BDDBCF84B58F7DFBCF809142
:10047000B0008F778093B000D2CF8091B0008F7D95
:10048000F9CF3E2BDACF3FB7F89480915601909187
:100490005701A0915801B091590126B5A89B05C0FC
:1004A0002F3F19F00196A11DB11D3FBFBA2FA92FF3
:1004B000982F8827BC01CD01620F711D811D911DF0
:1004C00042E0660F771F881F991F4A95D1F708955C
:1004D0008F929F92AF92BF92CF92DF92EF92FF9254
:1004E0004B015C010E9443026B017C010E944302AC
:1004F0006C197D098E099F09683E7340810591053D
:10050000A8F321E0821A9108A108B10888EEC80E6C
:1005100083E0D81EE11CF11C81149104A104B104F4
:1005200029F7FF90EF90DF90CF90BF90AF909F9012
:100530008F9008952FB7F8946091520170915301F4
:1005400080915401909155012FBF089508958FB760
:10055000F89480914B018FBF089561E0FC01848184
:100560000E94F70180914A01811110924A01089579
:100570008EBD00000DB407FEFDCF8EB508958FEF40
:100580000C94B8020F931F93CF93DF93EC010E945A
:100590009A028B010E94BF028F3F69F00E949A026B
:1005A000601B710B6C177D07A8F380E0DF91CF9182
:1005B0001F910F91089581E0F9CF8CBD9DBD0895E5
:1005C000CF93DF93EC0180914A01811109C081E052
:1005D00080934A018091FD039091FE030E94DD0209
:1005E00060E08C81DF91CF910C94F7018F929F9204
:1005F000AF92BF92FF920F931F93CF93DF93EC01C3
:10060000F62E49015A018E81882389F08F819885C1
:100610009C012F5F3F4F38872F838230924018F420
:100620000E94BF02F3CFCE010E94AD021E82CE0116
:100630000E94E0028CE291E00E94C2028F2D806451
:100640000E94B80208E110E0D501C401002E04C0E8
:10065000B695A795979587950A94D2F70E94B80208
:1006600008501109083F8FEF180771F785E9FF203F
:1006700021F028E087E8F2128FEF0E94B80210E024
:100680000E94BF028A8787FF04C01F3F11F01F5FCF
:10069000F7CFDF91CF911F910F91FF90BF90AF9057
:1006A0009F908F900895AF92BF92CF92DF92EF927A
:1006B000FF920F931F93CF93DF93EC016901C80161
:1006C000820F931F8130924050F58E81882379F0FC
:1006D00088819981AA81BB8184179507A607B707EE
:1006E00031F48F819885C816D90608F042C0488336
:1006F00059836A837B838B85833039F089E0440F8B
:10070000551F661F771F8A95D1F79A01AB0161E1EA
:10071000CE010E94F602882389F083E08D83CE010A
:100720000E94AD0280E0DF91CF911F910F91FF9069
:10073000EF90DF90CF90BF90AF9008950E949A0203
:100740005B010E94BF028A878F3F69F40E949A0270
:100750006A197B096D327140A0F38FE08D83CE0161
:100760000E94AD02DCCF8E3F89F418861F8281E0A3
:100770008E838F8198858C159D0550F40E94BF0251
:100780008F819885019698878F83F3CF8DE0E6CF90
:100790006701E00EF11E0E94BF02F60181936F0116
:1007A000EE15FF05C1F78F819885080F191F18876F
:1007B0000F838985882319F001151240A0F08E81DE
:1007C000882389F08F8198859C012F5F3F4F388760
:1007D0002F838230924018F40E94BF02F3CFCE01E3
:1007E0000E94AD021E8281E09ECFCF92DF92EF92F7
:1007F000FF920F93CF93DF93EC01690182E14115E2
:1008000051056105710599F08B85833039F089E0D8
:10081000440F551F661F771F8A95D1F79A01AB01C8
:1008200068E1CE010E94F602882319F084E08D83EE
:100830002DC08EEF0E94B80276018EEFD81AF70114
:1008400081917F010E94B802EC14FD04C1F78FEF83
:100850000E94B8028FEF0E94B8020E94BF028A87EE
:100860008F71853071F4011116C0CE010E94AD0266
:1008700081E0DF91CF910F91FF90EF90DF90CF90CB
:10088000089581E18D83CE010E94AD02CE010E94C8
:10089000AD0280E0EECF88E592E00E94C2028111B5
:1008A00002C085E1C4CF20E030E0A9016DE0CE01B7
:1008B0000E94F602882311F084E1B9CF0E94BF02A2
:1008C0008111FACFD2CF0F9340914D0150914E013B
:1008D00060914F01709150014115510561057105FD
:1008E00099F0082F20E631E080915E0190915F0140
:1008F0000E94F503882349F010924D0110924E0199
:1009000010924F011092500181E00F9108950F93C2
:10091000CF93C82F80914C01811105C0C1E08C2F6D
:10092000CF910F9108954091000150910101609184
:100930000201709103010C2F20E631E080915E01ED
:1009400090915F010E94F503811102C0C0E0E7CFE2
:10095000CC2321F381E00E9463048823B9F3109231
:100960004C01DDCF8F929F92AF92BF92EF92FF9298
:100970000F931F93CF934B015C01C42F8091000113
:1009800090910101A0910201B09103018815990590
:10099000AA05BB0551F181E00E94870481110BC0BB
:1009A00080E0CF911F910F91FF90EF90BF90AF909B
:1009B0009F908F90089580E6E82E81E0F82E00E069
:1009C00012E030E020E0B501A40180915E01909139
:1009D0005F010E945303882319F3809200019092D3
:1009E0000101A0920201B092030140914C014C2BF5
:1009F00040934C0181E0D5CFCF93DF93EC016E851E
:100A00007F858889998941E00E94B204882351F04A
:100A10008A8920E2829FC0011124805A9E4FDF9173
:100A2000CF91089590E080E0FACF8F929F92AF929D
:100A3000BF92CF92DF92EF92FF92CF932FEF33E0EE
:100A400030935F0120935E01882309F46DC040E07C
:100A500060E070E0CB010E94B20481110BC080E025
:100A6000CF91FF90EF90DF90CF90BF90AF909F908D
:100A70008F90089580911E038F7789F780912A03C4
:100A800090912B03A0912C03B0912D0384369105F6
:100A9000A105B10520F3C0902603D0902703E09074
:100AA0002803F0902903C114D104E104F104B9F240
:100AB00040E0C701B6010E94B204882381F2809110
:100AC0006B0190916C018115924049F6A0917001E3
:100AD000AA2329F260916E0170916F016115710571
:100AE00009F4BDCF20916D01222309F4B8CFA09362
:100AF0001D0420930F0490E080E030E0E1E0F0E09E
:100B0000C82FAF01082E02C0440F551F0A94E2F708
:100B10002417350769F041E0480F019689309105A7
:100B200079F7409318049BCFC12CD12C7601C0CF0C
:100B300080931804209176013091770150E040E0D5
:100B40002115310541F420918401309185014091B6
:100B50008601509187012093100430931104409333
:100B600012045093130446015701860E971EA11CD0
:100B7000B11C80921E0490921F04A0922004B09297
:100B80002104E0917101F0917201F0932404E0934B
:100B90002304B0E00E94D016DC01CB01880D991D22
:100BA000AA1DBB1D8093250490932604A0932704BF
:100BB000B093280425E0EE0FFF1F2A95E1F7E150DE
:100BC000FE4FEF2FFF27E6958E0F9F1FA11DB11D32
:100BD0008093190490931A04A0931B04B0931C04EF
:100BE0008090730190907401B12CA12C8114910418
:100BF00041F48090800190908101A0908201B0909A
:100C00008301C81AD90AEA0AFB0AC80CD91CEA1CD3
:100C1000FB1C04C0F694E794D794C794CA95D2F706
:100C2000C0921404D0921504E0921604F0921704B6
:100C300085EFC8168FE0D806E104F10428F48CE0B3
:100C40008093220481E00CCF80E125EFC2162FEFC4
:100C5000D206E104F104A0F380918C0190918D0102
:100C6000A0918E01B0918F0180932504909326046A
:100C7000A0932704B093280480E2E2CF4F925F92C2
:100C80006F927F928F929F92AF92BF92CF92DF929C
:100C9000EF92FF920F931F93CF93DF93EC014230BB
:100CA00051056105710590F480E0DF91CF911F91AE
:100CB0000F91FF90EF90DF90CF90BF90AF909F90FB
:100CC0008F907F906F905F904F90089589859A855F
:100CD000AB85BC850196A11DB11D84179507A6079C
:100CE000B70710F3CB88DC88ED88FE888F898031C8
:100CF00009F042C0BB27A72F962F852F4801590125
:100D00002A013B01C80ED91EEA1EFB1E809100017C
:100D100090910101A0910201B0910301C816D9067A
:100D2000EA06FB0699F58F898031C1F5B301A2016E
:100D3000552766277727440F551F405A5E4FFA0103
:100D40009182808280914C01816080934C018A89DC
:100D5000823080F08D819E81AF81B8858C0D9D1D84
:100D6000AE1DBF1D80934D0190934E01A0934F0186
:100D7000B093500181E099CFDB01CA01E7E0B6955D
:100D8000A79597958795EA95D1F7B8CF40E0C70129
:100D9000B6010E94B2048111C6CF86CFB301A20171
:100DA0004F77552766277727440F551F440F551F48
:100DB000405A5E4FFA0180829182A282B382C2CFF2
:100DC0008F929F92AF92BF92CF92DF92EF92FF925B
:100DD0000F931F93CF93DF93FC0181859285A385A9
:100DE000B4850196A11DB11D84179507A607B70705
:100DF00070F480E0DF91CF911F910F91FF90EF9001
:100E0000DF90CF90BF90AF909F908F900895838890
:100E10009488A588B6888789803189F5BB27A72F54
:100E2000962F852FE9016A017B018F01BC01CD015D
:100E3000680D791D8A1D9B1D809000019090010115
:100E4000A0900201B090030186169706A806B90685
:100E500001F5F8018789803111F5DD24EE24FF24A6
:100E6000F601EE0FFF1FE05AFE4F80819181B0E046
:100E7000A0E088839983AA83BB8381E0BBCFDB0199
:100E8000CA01C7E0B695A79597958795CA95D1F7FA
:100E9000C9CF40E00E94B2048111DBCFAACFE89411
:100EA000C7F8DD24EE24FF24F601EE0FFF1FEE0F3E
:100EB000FF1FE05AFE4F80819181A281B381BF70F4
:100EC000D8CF4F925F926F927F92AF92BF92CF92A4
:100ED000DF92EF92FF920F931F93CF93DF9300D097
:100EE00000D0CDB7DEB78C0149835A836B837C83F6
:100EF0005901C12CD12C7601412C82E0582E612C55
:100F0000712C49815A816B817C819E012F5F3F4FFB
:100F1000C8010E94E006882339F1F8018585A30104
:100F2000920104C0220F331F441F551F8A95D2F728
:100F3000DA01C901C80ED91EEA1EFB1E49815A8179
:100F40006B817C818789803111F188EF9FEFAFEF52
:100F5000BFE0481759076A077B0798F2F501C0827E
:100F6000D182E282F38281E00F900F900F900F9078
:100F7000DF91CF911F910F91FF90EF90DF90CF9075
:100F8000BF90AF907F906F905F904F90089588EFE3
:100F90009FEFA0E0B0E0DDCFCF93DF93FC01258190
:100FA000222321F080E0DF91CF910895EC01809120
:100FB0002204803159F582E08583178A108E118EC4
:100FC000128E8091230490912404B0E0A0E025E0EB
:100FD000880F991FAA1FBB1F2A95D1F7838B948B6B
:100FE000A58BB68B8BE094E09C8F8B8F81E08C83FC
:100FF0001E821F82188619861A861B861C861D86ED
:101000001E861F86188A198A1A8ACDCF803251F619
:1010100083E0858340912504509126046091270444
:1010200070912804478B508F618F728F9F012D5EC6
:101030003F4F8BE094E00E9461078111D3CFB2CF84
:101040008F929F92AF92BF92CF92DF92EF92FF92D8
:101050000F931F93CF93DF93EC018D8181110EC00D
:1010600080E0DF91CF911F910F91FF90EF90DF9083
:10107000CF90BF90AF909F908F9008950B891C895F
:101080002D893E89041715072607370748F34A01BB
:101090005B01823031F48A869B86AC86BD8681E016
:1010A000E0CF81149104A104B10449F41E821F828F
:1010B000188619861A861B861C861D86F0CF0A851F
:1010C0001B852C853D85EB8DFC8D858590E00996F3
:1010D000B901A8014150510961097109082E04C0E4
:1010E00076956795579547950A94D2F775016401EF
:1010F000E1E0CE1AD108E108F10804C0F694E794C3
:10110000D794C7948A95D2F7C416D506E606F70693
:1011100020F0012B022B032B11F58F89988DA98DBF
:10112000BA8D8E839F83A887B9878E010A5F1F4F70
:10113000C114D104E104F10409F4ADCF4E815F8103
:101140006885798598018B8D9C8D0E94E00691E0E1
:10115000C91AD108E108F1088111EACF81CFC41A78
:10116000D50AE60AF70AE1CF3F924F925F926F925B
:101170007F928F929F92AF92BF92CF92DF92EF9227
:10118000FF920F931F93CF93DF93CDB7DEB72C97CA
:101190000FB6F894DEBF0FBECDBF5C01DC015B96DD
:1011A0008D909C905C9716964D905D906D907C9084
:1011B0001997411451046104710409F468C0BFEF28
:1011C0004B1A5B0A6B0A7B0A312CF40181859285EC
:1011D000A385B4859C01AD012F5F3F4F4F4F5F4FFB
:1011E00029873A874B875C87730162011D821E82C3
:1011F0001F821886F40181859285A385B4852D818F
:101200003E814F815885281739074A075B0708F048
:1012100056C089859A85AB85BC858C159D05AE0524
:10122000BF0550F482E0C82ED12CE12CF12C92E0C5
:10123000492E512C612C712C9E012F5F3F4FB7011D
:10124000A601C4010E94E0068823C9F189819A8120
:10125000AB81BC81892B8A2B8B2B09F126013701AD
:101260009FEF491A590A690A790A2D813E814F81F7
:1012700058852F5F3F4F4F4F5F4F2D833E834F83E6
:1012800058873FEFC31AD30AE30AF30AB3CFF40136
:1012900040805180628073803324339496CFC4148D
:1012A000D504E604F70409F70FEF1FEF2FEF3FE037
:1012B000B701A601C4010E943E06811119C080E059
:1012C0002C960FB6F894DEBF0FBECDBFDF91CF9145
:1012D0001F910F91FF90EF90DF90CF90BF90AF9054
:1012E0009F908F907F906F905F904F903F90089568
:1012F000D50116964D915D916D917C91199741158F
:1013000051056105710539F097018601C4010E94FC
:101310003E068823A1F2D5011696CD92DD92ED927C
:10132000FC921997332051F0D701C6010196A11DF7
:10133000B11DF40180839183A283B383F501878972
:10134000908DA18DB28D892B8A2B8B2B39F48481C2
:10135000C78AD08EE18EF28E80688483F501848105
:101360008062848381E0ACCF1F93CF93DF93FC0135
:101370002581222371F1162FEC01848187FF1EC085
:10138000CF010E94FC04FC01892B19F18D81823070
:1013900040F48B899C89AD89BE89848F958FA68FF7
:1013A000B78F8F89988D938F828F8F89988DA98D14
:1013B000BA8DB58BA48B8C818F778C83111103C070
:1013C0008C818F7E8C83812FDF91CF911F910C9424
:1013D000870480E0DF91CF911F910895FF920F93D2
:1013E0001F93CF93DF93EC018D81813041F090E02A
:1013F00080E0DF91CF911F910F91FF9008958C8134
:1014000081FFF5CF82FD1BC000915E0110915F014D
:10141000C8010E94E0020E94BF02F82EC8010E948B
:10142000AD028FEFF812E3CF8C8185FF1BC060E027
:10143000CE010E94B4098C818F7D8C83D8CF4B89DB
:101440005C896D897E898A859B85AC85BD8584177D
:101450009507A607B707C1F2CE010E9420088111A7
:10146000D3CFC5CF40914D0150914E0160914F01B6
:1014700070915001452B462B472B21F080E00E94B4
:101480006304B5CF80618C832A853B85317080E011
:1014900092E0821B930BADCFCF93DF93EC0161E021
:1014A0000E94B409882311F01D8281E0DF91CF9161
:1014B00008952F923F924F925F926F927F928F92F8
:1014C0009F92AF92BF92CF92DF92EF92FF920F93D3
:1014D0001F93CF93DF9300D000D01F92CDB7DEB71C
:1014E0007C015B01342E5D83DC0115968C91159790
:1014F000813009F0CEC014962C9021FECAC022FC87
:10150000B4C0C32CDD8022947FE027222094B22D2A
:10151000B1702B2ED7011A964D915D916D917C91F2
:101520001D97C114D10409F428C15B968D919C913B
:101530005C97FC0174807A948A019B0169E036957E
:101540002795179507956A95D1F770228A01117032
:10155000711020C001151105E9F416964D915D91A9
:101560006D917C911997411551056105710509F03F
:1015700099C057968D919D910D90BC91A02D00978B
:10158000A105B10509F0B0C0C7010E94B4088823C5
:1015900009F47FC080E092E0801B910B46018C151E
:1015A0009D0508F44C01D7015B964D915C915C97C9
:1015B00016968D919D910D90BC91A02D0297A10939
:1015C000B109FA01258504C0880F991FAA1FBB1F06
:1015D0002A95D2F74685578560897189840F951FB2
:1015E000A61FB71F9C01AD01270D311D411D511DC7
:1015F00029013A01811432E0930609F07BC0809101
:10160000000190910101A0910201B09103018415A4
:101610009505A605B70559F48FEF9FEFDC01809380
:10162000000190930101A0930201B0930301022DE8
:101630009501B301A20180915E0190915F010E942A
:10164000F503882331F19EEFB91AC818D908F701BC
:1016500082859385A485B585880D991DA11DB11D31
:1016600082879387A487B58755CFF701438954892B
:101670006589768982859385A485B585481759073C
:101680006A077B0709F43DCFC7010E94200881113A
:1016900038CF81E090E0D70113969C938E931297F8
:1016A00080E007C09E012F5F3F4F0E94E00681113E
:1016B00002C090E079C089819A81AB81BC81F70139
:1016C000238D348DF901278948EF5FEF60E070E0EA
:1016D000203121F048EF5FEF6FEF7FE0841795072F
:1016E000A607B70708F050CFF70186839783A08736
:1016F000B18750CF0115110599F5D7011A964D9173
:101700005D916D917C911D9753968D919D910D905A
:10171000BC91A02D481759076A077B0708F181E0A3
:101720000E948704882309F4B4CF409200015092AC
:101730000101609202017092030180914C0181606D
:1017400080934C01C801805A9E4FD5019C01280D01
:10175000391DFC012E173F0759F04D914193FACFE7
:1017600041E0C301B2010E94B2048111EBCF91CFDD
:10177000281B390BA20EB31E68CFF7018389948909
:10178000A589B68984179507A607B70738F4848119
:10179000438B548B658B768B80688483F7018481BF
:1017A00083FD1AC0832D9D810F900F900F900F9095
:1017B0000F90DF91CF911F910F91FF90EF90DF90ED
:1017C000CF90BF90AF909F908F907F906F905F90E1
:1017D0004F903F902F90089561E0C7010E94B40997
:1017E000882309F456CFDECFCF93DF931F92CDB776
:1017F000DEB7698341E050E0BE016F5F7F4F0E941A
:10180000590A0F90DF91CF910895FC01DB011296E8
:101810008D919C911397938382838EE291E09183C3
:10182000808314968C911497848315968C911597C8
:10183000858316964D915D916D917C9119974683A4
:101840005783608771871A964D915D916D917C9158
:101850001D9742875387648775871E964D915D91CA
:101860006D917C91519746875787608B718B52960B
:101870008C915297828B53964D915D916D917C9195
:101880005697438B548B658B768B57964D915D9114
:101890006D917C915A97478B508F618F728F5B96B9
:1018A0008D919C91948F838F08950895FC01818D73
:1018B000928D009719F061E00C94B4090895DC0151
:1018C0005996ED91FC913097B9F083899489A58957
:1018D000B6894285538564857585841B950BA60B57
:1018E000B70B811520E89207A105B10538F08FEFFD
:1018F0009FE7A0E0B0E0089590E080E00895DC016B
:1019000059968D919C91009739F0DC01ED91FC91F5
:101910000480F581E02D099490E080E00895CF9354
:10192000DF93EC01E98DFA8D309749F481E090E086
:101930009B838A8390E080E0DF91CF9108951382AA
:101940001282898D9A8D0E94590AE98DFA8D228121
:101950003381232B59F7F0CFCF93DF931F92CDB76D
:10196000DEB76983DC01ED91FC910280F381E02D0B
:1019700041E050E0BE016F5F7F4F09950F90DF910E
:10198000CF9108952F923F924F925F926F927F92E4
:101990008F929F92AF92BF92CF92DF92EF92FF927F
:1019A0000F931F93CF93DF9300D01F92CDB7DEB775
:1019B000FC018581811118C08FEF9FEF0F900F9070
:1019C0000F90DF91CF911F910F91FF90EF90DF90DB
:1019D000CF90BF90AF909F908F907F906F905F90CF
:1019E0004F903F902F900895848180FFE5CF4389E9
:1019F00054896589768982859385A485B585312C3E
:101A0000212C481759076A077B0719F022242394D1
:101A1000312C6F012101CE0101963C01DF011696A8
:101A2000BB83AA834114510409F4C5C0F601428561
:101A30005385648575854A01F1E09F22D6015B9646
:101A40008D919C915C978A019B01E9E036952795E1
:101A500017950795EA95D1F71596EC91E230E9F5DF
:101A6000FC01628D738D848D958D600F711F821FB7
:101A7000931FA12C22E0B22EA818B9084A145B04C7
:101A800008F45201F601248126FD04C0A114F2E0FD
:101A9000BF0671F400910001109101012091020133
:101AA00030910301061717072807390709F05EC0B0
:101AB00040E00E94B204882309F47ECFC401805A1A
:101AC0009E4FD3019C012A0D3B1DFC012E173F07A1
:101AD00009F46CC041914D93F9CFDC011496BC9090
:101AE000BA94B0228114910479F4B1100DC0452B41
:101AF000462B472B69F5F6018789908DA18DB28D14
:101B000086839783A087B187D6015B96ED91FC9180
:101B10005C9716966D917D918D919C91199762506D
:101B2000710981099109258504C0660F771F881FF7
:101B3000991F2A95D2F70685178520893189600F6C
:101B4000711F821F931F6B0D711D811D911D91CF00
:101B5000D60116964D915D916D917C9119972A81D0
:101B60003B810E94E0068111CFCF26CF7301850112
:101B70009401AB01BC0180915E0190915F010E94D4
:101B80005303882309F418CF6A0C7B1CF601828565
:101B90009385A485B5858A0D9B1DA11DB11D8287E6
:101BA0009387A487B5874A185B083CCF281B390B5D
:101BB000620E731EEBCF2A94232809F0FDCE898193
:101BC00090E0FCCEFC01818D928D009711F00C9479
:101BD000C20C8FEF9FEF08950F931F93CF93DF9366
:101BE000EC01898D9A8D10E000E0009799F00E9439
:101BF000C20C8C010F3F100769F0898D9A8DFC0192
:101C00004285538564857585415051096109710983
:101C10000E942008C801DF91CF911F910F91089574
:101C20008F929F92AF92BF92CF92DF92EF92FF92EC
:101C30000F931F93CF93DF9300D000D0CDB7DEB7C3
:101C4000FC018581813091F080E00F900F900F9022
:101C50000F90DF91CF911F910F91FF90EF90DF9048
:101C6000CF90BF90AF909F908F900895848181FF17
:101C7000EBCF83899489A589B689892B8A2B8B2BF5
:101C800009F45FC07F0140E050E0BA01CF010E943B
:101C900020088823C9F2F701C38CD48C8788908CE4
:101CA000A18CB28C82E090E0A0E0B0E0F6018083ED
:101CB0009183A283B3839E012F5F3F4FB501A4019F
:101CC000C6010E94E006882309F4BECF00E010E0C0
:101CD0009801B501A401C6010E943E06882309F4BB
:101CE000B3CF89809A80AB80BC80F6018789803130
:101CF00019F188EF9FEFAFEFBFE088169906AA06AB
:101D0000BB06C8F2F701178A108E118E128E138A45
:101D1000148A158A168A84818068848361E0C701E9
:101D20000E94B409882309F48FCF40E050E0BA0143
:101D3000C7010E94200889CF88EF9FEFA0E0B0E0A4
:101D4000DCCF81E082CFCF92DF92EF92FF921F93A0
:101D5000CF93DF93EC0180E2689FF0011124E05AF9
:101D6000FE4F9385917161F0842F827449F080E079
:101D7000DF91CF911F91FF90EF90DF90CF9008956A
:101D8000142F6A8B8091000190910101A0910201B2
:101D9000B09103018E879F87A88BB98BC488D588A3
:101DA000F12CE12C7601DD24CC24CF8AD88EE98E6B
:101DB000FA8E828D938DB0E0A0E0AC01BD014C297C
:101DC0005D296E297F294F8B588F698F7A8F838584
:101DD0008871B1F4848D958DA68DB78D8B8B9C8B7E
:101DE000AD8BBE8B81E08D831F701C831E821F8292
:101DF000188619861A861B861C861D8681E0B8CF38
:101E0000803109F0B4CF9E012D5E3F4F8B8D9C8DAC
:101E10000E946107882309F4AACF84E0E4CF80916F
:101E2000610490916204009761F00E944C0A8091D5
:101E30006104909162040E94A017109262041092B3
:101E4000610408953F924F925F926F927F928F92BA
:101E50009F92AF92BF92CF92DF92EF92FF920F9339
:101E60001F93CF93DF93CDB7DEB72B970FB6F894C0
:101E7000DEBF0FBECDBF7C01FE013196CE010C96B8
:101E80006F0130E231938E179F07E1F7DA0130E0FE
:101E900087E09D91B92E992309F43CC09E32F1F45C
:101EA0008A30C9F480E02B960FB6F894DEBF0FBEDF
:101EB000CDBFDF91CF911F910F91FF90EF90DF90F9
:101EC000CF90BF90AF909F908F907F906F905F90DA
:101ED0004F903F90089538E08AE0DBCFE8E6F0E0ED
:101EE0004491442321F031969413FACFDBCF83172A
:101EF000C8F24FED490F4E35A8F64FE9490F4A3168
:101F000018F440EEB42EB90EF601E30FF11DB082C5
:101F10003F5FBFCF8981803229F2322E8B01DB01F6
:101F20005B968D919C915C97F701948F838F1696A9
:101F30001D921D921D921C921997FB011286138609
:101F400014861586F80182859385A485B585438915
:101F500054896589768984179507A607B70708F01D
:101F60004DC025E0B695A795979587952A95D1F709
:101F7000F82FFF70AF2ED80115968C91823008F49F
:101F800091CFC8010E94C20C97FD8CCFF8018285C9
:101F90009385A485B5854F96A11DB11D8287938732
:101FA000A487B587F0E2AF9EB0011124605A7E4F3E
:101FB0006115710509F476CFDB018C91882341F01E
:101FC000853E09F058C0BB2029F0BB24B394BACF9A
:101FD000B1100EC0F701A28A809100019091010119
:101FE000A0910201B091030186879787A08BB18BE6
:101FF000DB018C918111E9CFBB24B394832D8271D5
:10200000823109F04FCFBB2009F443C0C7010E94C1
:10201000FC04009709F446CF20E2FC0111922A95B6
:10202000E9F72BE0F601DC0101900D922A95E1F72A
:1020300021E238E2DC0151963C932E93509740E028
:1020400058E01F965C934E931E9753963C932E93A5
:10205000529759963C932E93589757965C934E936C
:10206000569781E00E948704882309F41BCF432DF3
:10207000F70162890AC04BE050E0C6010E942918AE
:10208000892B09F05FCF432D6A2DC7010E94A30E53
:102090000ACFF8018581823009F404CFC8010E947B
:1020A000B408882309F4FECED8015B96ED91FC912B
:1020B0005C9716968D909D90AD90BC901997B2E06C
:1020C0008B1A9108A108B108858504C0880C991C59
:1020D000AA1CBB1C8A95D2F786859785A089B189F1
:1020E000880E991EAA1EBB1E848124013501480E4C
:1020F000511C611C711C481459046A047B0409F1C9
:10210000E1E04E1A51086108710881E00E948704DD
:10211000882309F4C7CEE0E6F1E0119280E693E06F
:102120008E179F07D1F740920001509201016092F3
:1021300002017092030180914C01816080934C01F7
:10214000DACFD8015B96ED91FC91258580E092E095
:10215000A0E0B0E004C0880F991FAA1FBB1F2A95FA
:10216000D2F7F8014389548965897689840F951FD0
:10217000A61FB71F838B948BA58BB68BD701529666
:102180001C9280E691E048CFCF93DF93CDB7DEB7C6
:102190006D970FB6F894DEBF0FBECDBFAB011C82AA
:1021A0001B822EE231E03A8329831E8222E0BC01A9
:1021B000CE0101960E94220F81110AC080E06D9627
:1021C0000FB6F894DEBF0FBECDBFDF91CF9108955B
:1021D000CE0101960E94100E882381F3CE01019654
:1021E0000E94FC04009751F325EEFC0120831E821F
:1021F00081E00E948704E3CF442341F00E94C41091
:1022000091E0811101C090E0892F089591E0FCCF09
:10221000BF92CF92DF92EF92FF920F931F93CF93D3
:10222000DF93CDB7DEB7C754D1090FB6F894DEBF40
:102230000FBECDBF19A218A28EE291E09F8F8E8FA4
:102240001BA21C821B829A8389831E82C12CB12C03
:102250007E018EE1E80EF11C09E214E08C2D9B2D2D
:10226000FC01E85FFE4F20812F3209F40196DC016A
:10227000A85FBE4FFE01FB9630E020E0AF016D91FC
:102280006F3249F0662339F001962F5F3F4F61931B
:102290002C303105A1F7240F351FF9011082FC0104
:1022A000E85FFE4F20812F3209F40196C82EB92E27
:1022B000885F9E4FFC01808181110CC0BA01C8016A
:1022C0000E94C41081111AC0F4E009321F07F1F511
:1022D00080E01CC0F7018581811134C021E0B80184
:1022E000C7010E94220FD82E84E009321807F9F0A6
:1022F000C8010E944C0AD1101FC0EACFF4E0093295
:102300001F0719F0C8010E944C0A81E0C95BDF4F2A
:102310000FB6F894DEBF0FBECDBFDF91CF911F91F6
:102320000F91FF90EF90DF90CF90BF900895DD2048
:1023300079F28E010F5F1F4F902F812F8701E92EB9
:10234000F82E8CCF84E00932180711F2C8010E94E0
:102350004C0ABECFEF92FF920F931F93CF93DF9360
:10236000EC017B018A011B821A8288EE93E0A0E0D7
:10237000B0E08C839D83AE83BF838AE391E0998331
:1023800088838DE190E00E9404179A8F898F0097CF
:1023900079F02DE1F701DC0101900D922A95E1F72A
:1023A0004CE050E0B801CE010C960E944118188E06
:1023B000DF91CF911F910F91FF90EF9008953F9281
:1023C0004F925F926F927F928F929F92AF92BF9245
:1023D000CF92DF92EF92FF920F931F93CF93DF93F1
:1023E000CDB7DEB7C656D1090FB6F894DEBF0FBE23
:1023F000CDBF5C01362E19A218A28EE291E09F8F0C
:102400008E8F1BA21C821B829A8389831E823E01AF
:102410008EE1680E711CC3010E94CC078E010F5F14
:102420001F4F430188E0C82E81E0D82E28016FE2BB
:1024300070E0C6010E943618009709F45DC0F601ED
:1024400020812F3271F4FFEFCF1ADF0A902F812FF6
:102450008401892E982E982D892D4801092F182F37
:10246000E6CF8C198D3008F08CE0E82EF12CA70116
:10247000B601CE01885A9F4F0E944118E8E5F0E06E
:10248000EC0FFD1FEE0DFF1D1082C8010E944C0ACB
:10249000F8018581882301F11EAE1DAE8EE291E028
:1024A0009CAF8BAF21961FAE2197A7960EAD1FADA7
:1024B000A797085F1E4FF801808181112AC0BE01D5
:1024C000655C7F4FC2010E94050C48E451E0B201F7
:1024D000C5010E94AA113BC021E0AE01485A5F4FDE
:1024E000B401C8010E94220F8823B1F2CE0CDF1C78
:1024F000C4010E944C0AAFCFC60188509140A796F4
:102500009FAF8EAFA797B401CE01CB960E94050C6A
:10251000CCCF19A218A28EE291E09F8F8E8F1BA2C2
:1025200021968FAD219781112CC0F5011382128263
:1025300088EE93E0A0E0B0E084839583A683B78320
:102540008AE391E091838083128E118E1486C501F7
:10255000CA59DF4F0FB6F894DEBF0FBECDBFDF9173
:10256000CF911F910F91FF90EF90DF90CF90BF9090
:10257000AF909F908F907F906F905F904F903F9023
:102580000895232DA801BE01655C7F4FC3010E9401
:10259000220F882351F2CE01CB960E944C0A832D44
:1025A0008670863039F449A95AA96BA97CA9C30160
:1025B0000E942008B301C2010E94050CA80187CF28
:1025C000CF93DF93CDB7DEB76B970FB6F894DEBF2E
:1025D0000FBECDBF90915B0180915D01981718F1FE
:1025E00068EC70E080E090E00E94680264E670E0D1
:1025F00080E090E00E94680283E290E00E94D201B5
:1026000064E670E080E090E00E9468028AE090E07A
:102610000E94D2016B960FB6F894DEBF0FBECDBFFD
:10262000DF91CF91089580915C01890F9927991FBF
:102630006AE070E00E94BC16805D80930C0168EC3B
:1026400070E080E090E00E94680261E0CE010196B7
:102650000E94DF11CE0101960E948F0088E494E071
:102660000E945F0C892B69F064E670E080E090E0E6
:102670000E94680288E494E00E94E20D0E94D20168
:10268000EDCF0E940F0FBCCF80915B01882319F022
:10269000815080935B010C94E01280915B01282FA4
:1026A00030E02F5F3F4F90915D019217130621F0AC
:1026B0001CF08F5F80935B010C94E0121F920F92CD
:1026C0000FB60F9211242F933F934F935F936F9305
:1026D0007F938F939F93AF93BF93EF93FF9380E686
:1026E00093E00E946301FF91EF91BF91AF919F91A1
:1026F0008F917F916F915F914F913F912F910F90AB
:102700000FBE0F901F9018951F920F920FB60F9249
:1027100011242F938F939F93EF93FF93E091700376
:10272000F09171038081E0917603F091770382FD4F
:102730001BC09081809179038F5F8F7320917A0302
:10274000821741F0E0917903F0E0E05AFC4F958F59
:1027500080937903FF91EF919F918F912F910F902B
:102760000FBE0F901F9018958081F4CF1F920F928B
:102770000FB60F9211242F933F938F939F93AF9394
:10278000BF938091520190915301A0915401B09157
:1027900055013091510123E0230F2D3758F5019653
:1027A000A11DB11D209351018093520190935301BB
:1027B000A0935401B0935501809156019091570117
:1027C000A0915801B09159010196A11DB11D8093AE
:1027D000560190935701A0935801B0935901BF91AE
:1027E000AF919F918F913F912F910F900FBE0F90BE
:1027F0001F90189526E8230F0296A11DB11DD2CF78
:102800001F920F920FB60F9211242F933F934F9365
:102810005F936F937F938F939F93AF93BF93EF9348
:10282000FF93E0910601F09107010995FF91EF9167
:10283000BF91AF919F918F917F916F915F914F91D8
:102840003F912F910F900FBE0F901F9018951F92E0
:102850000F920FB60F9211242F933F934F935F93D4
:102860006F937F938F939F93AF93BF93EF93FF9358
:10287000E0910401F09105010995FF91EF91BF915D
:10288000AF919F918F917F916F915F914F913F9108
:102890002F910F900FBE0F901F901895E0E6F3E078
:1028A0001382128288EE93E0A0E0B0E084839583E7
:1028B000A683B7832CE131E03183208325EC30E01F
:1028C0003587248724EC30E03787268720EC30E0FA
:1028D000318B208B21EC30E0338B228B22EC30E0EB
:1028E000358B248B26EC30E0378B268B118E128EA5
:1028F000138E148EEDEFF3E020E520831182EFEFCD
:10290000F3E0158216821186138642E050E060E003
:1029100070E0448755876687778713A215A614A6AB
:102920002EE231E033A722A717A6E8E4F4E01382F1
:10293000128284839583A683B7838AE391E091838F
:102940008083128E118E14860895CF93DF93CDB7B6
:10295000DEB76B970FB6F894DEBF0FBECDBF78948D
:1029600084B5826084BD84B5816084BD85B5826094
:1029700085BD85B5816085BD80916E008160809345
:102980006E001092810080918100826080938100AE
:1029900080918100816080938100809180008160BE
:1029A000809380008091B10084608093B100809119
:1029B000B00081608093B00080917A008460809341
:1029C0007A0080917A00826080937A0080917A0008
:1029D000816080937A0080917A00806880937A0089
:1029E0001092C100E0917003F091710382E0808346
:1029F000E0916C03F0916D031082E0916E03F09111
:102A00006F038FEC808310927803E0917403F09150
:102A1000750386E08083E0917203F09173038081F7
:102A200080618083E0917203F091730380818860FC
:102A30008083E0917203F0917303808180688083CA
:102A4000E0917203F091730380818F7D8083809188
:102A50002E04882321F089E294E00E944C0A10920F
:102A60000A041092080410920504109204048AE0EB
:102A7000809303040E949A028B01809103040E94B8
:102A8000C60061E0809103040E94F701FFB6F8944C
:102A900080915A01811124C0EAEAF0E08491EEEBC2
:102AA000F0E09491E82FF0E0EE0FFF1FEA56FF4FA1
:102AB000A591B491EC91E92321F461E08AE00E94B0
:102AC000F7018AE00E94C6008CB580618CBD8CB590
:102AD00080648CBD8DE00E94C6008BE00E94C60021
:102AE00080915A018F5F80935A01FFBE82E58093E7
:102AF000FD031092FE038091FD039091FE030E945E
:102B0000DD023AE0F32E8FEF0E94B802FA94F11042
:102B1000FACF8FEF93E00E94E00220E030E0A901BD
:102B200060E08FEF93E00E94F602F82E8093090494
:102B300081E0F81609F490C00E949A02601B710BA4
:102B4000613D774050F381E0809304048FEF93E080
:102B50000E94AD020AE010E061E0CE0101960E9401
:102B6000DF11CE0101960E948F00E0916104F09187
:102B70006204309739F08581882321F00E940F0F7D
:102B80000E94081180910C018F5F80930C0101500D
:102B9000110911F784E493E19093050180930401F6
:102BA000809169008C7F826080936900E89A8DE44F
:102BB00093E1909307018093060180916900837FE0
:102BC000886080936900E99A0AE010E080E0E82ECE
:102BD00080E0F82E80E693E00E944301892B91F17A
:102BE00080915C0190915D01890F9927991FB8012F
:102BF0000E94BC16805D80930C0167E1CE010196B6
:102C00000E94DF11CE0101960E948F0080E693E0C2
:102C10000E942101D82E80E4D81629F06D2D88E479
:102C200094E00E94AC0C0E940F0F80E4D8120AC0FE
:102C300020915D01293008F08DC02F5F20935D0148
:102C400020935B01E114F10429F20E944F018823D3
:102C500009F20E940000BECF2AEA31E040E050E0D5
:102C600068E08FEF93E00E94F60282FF2AC0F092A4
:102C70000A0480910A04C12CD12C7601823029F4F7
:102C8000C12CD12CE12C90E4F92E20E030E0A901F8
:102C900067E38FEF93E00E94F602A701960169E2D5
:102CA0008FEF93E00E94F602809309048823D1F00D
:102CB0000E949A02601B710B613D774030F388E0FF
:102CC00043CF24E0F22E0E94BF0280930904FA94BD
:102CD000F110F9CF8A3A11F082E036CF82E080938A
:102CE0000A04C7CF80910A048230D1F420E030E09A
:102CF000A9016AE38FEF93E00E94F602882311F0A6
:102D000086E022CF0E94BF02807C803C19F483E0E1
:102D100080930A040E94BF020E94BF020E94BF0269
:102D20008FEF93E00E94AD0280E58093FD03109247
:102D3000FE0381E00E941505882329F089E294E0D2
:102D40000E94CC0707CF80E00E941505882309F474
:102D500001CFF4CF80915C0190E3980F90930C0128
:102D600090E00196B8010E94BC1680935C0120930C
:102D70005B010E94081166CF97FB072E16F40094A2
:102D800007D077FD09D00E94DB1607FC05D03EF482
:102D9000909581959F4F0895709561957F4F089507
:102DA0000E94F516A59F900DB49F900DA49F800DD5
:102DB000911D11240895AA1BBB1B51E107C0AA1F36
:102DC000BB1FA617B70710F0A61BB70B881F991FCC
:102DD0005A95A9F780959095BC01CD010895EE0F05
:102DE000FF1F0590F491E02D0994A29FB001B39FBD
:102DF000C001A39F700D811D1124911DB29F700D04
:102E0000811D1124911D08950F931F93CF93DF937C
:102E10008230910510F482E090E0E0916504F09139
:102E2000660430E020E0B0E0A0E0309799F421158E
:102E3000310509F44AC0281B390B24303105D8F577
:102E40008A819B816115710589F1FB0193838283DE
:102E5000FE0111C040815181028113814817590739
:102E6000E0F04817590799F4109761F012960C9307
:102E7000129713961C933296CF01DF91CF911F9139
:102E80000F9108950093650410936604F4CF211503
:102E9000310551F04217530738F0A901DB019A01BF
:102EA000BD01DF01F801C1CFEF01F9CF90936604B6
:102EB00080936504CDCFFE01E20FF31F81939193C0
:102EC0002250310939832883D7CF20916304309170
:102ED0006404232B41F420911401309115013093A7
:102EE0006404209363042091120130911301211591
:102EF000310541F42DB73EB74091160150911701AD
:102F0000241B350BE0916304F0916404E217F3078E
:102F1000A0F42E1B3F0B2817390778F0AC014E5F49
:102F20005F4F2417350748F04E0F5F1F509364041E
:102F300040936304819391939FCFF0E0E0E09CCFB6
:102F4000CF93DF930097E9F0FC013297138212824E
:102F5000A0916504B0916604ED0130E020E0109787
:102F6000A1F420813181820F931F2091630430915D
:102F700064042817390709F061C0F0936404E093F2
:102F80006304DF91CF910895EA01CE17DF07E8F5DA
:102F90004A815B819E0141155105B1F7E901FB832F
:102FA000EA8349915991C40FD51FEC17FD0761F4CD
:102FB000808191810296840F951FE901998388830E
:102FC000828193819B838A83F0E0E0E012968D9169
:102FD0009C9113970097B9F52D913C911197CD01D4
:102FE0000296820F931F2091630430916404281786
:102FF000390739F6309751F510926604109265043E
:10300000B0936404A0936304BCCFD383C283408194
:103010005181840F951FC817D90761F44E5F5F4F28
:1030200088819981480F591F518340838A819B81F0
:10303000938382832115310509F0B0CFF0936604A4
:10304000E09365049ECFFD01DC01C0CF13821282A4
:10305000D7CFFB01DC0104C08D910190801921F4D0
:1030600041505040C8F7881B990B0895FC0181918D
:10307000861721F08823D9F7992708953197CF0132
:103080000895FB01DC014150504048F001900D9241
:103090000020C9F701C01D9241505040E0F708954B
:0430A000F894FFCFD2
:1030A400FFFFFFFFA602A60274657374302E7478C6
:1030B4007400000067048000000000008501E50042
:1030C4001201D70143012101350100000000F40B76
:1030D400E500EE09550C00000000AC0C8F0C7F0CD1
:0A30E400560C5F0CE20DEC0D2F00FE
:00000001FF
