:100000000C94F3000C9410010C9410010C94E30C6C
:100010000C9410010C9410010C9410010C9410011C
:100020000C9410010C9410010C9410010C9410010C
:100030000C9410010C94D10C0C9410010C94100130
:100040000C9410010C9410010C9410010C941001EC
:100050000C941001036EDB363D9A9999993DABAA39
:10006000AA2A3E000000803F084AD73B3BCE016EE3
:1000700084BCBFFDC12F3D6C74319ABD56833DDAFF
:100080003D00C77F11BED9E4BB4C3E916BAAAABE0E
:10009000000000803F07634236B79BD8A71A396833
:1000A0005618AEBAAB558C1D3CB7CC5763BD6DED41
:1000B000FD753EF6177231BF000000803F072C7AB5
:1000C000A5BA6CC590DA3B9365FC8BBC53F810FD68
:1000D0003C5692834DBD879D3AB63DCBC9BF5BBEB2
:1000E00073DA0FC93F05A84CCDB2D44EB93836A942
:1000F000020C50B9918688083CA6AAAA2ABE000024
:1001000000803F08000000BE922449123EABAAAA1C
:100110002ABECDCCCC4C3E00000080BEABAAAAAA21
:100120003E00000000BF000000803F000000000013
:10013000084178D3BB4387D1133D190E3CC3BD4260
:1001400082AD2B3E68EC8276BED98FE1A93E4C8011
:10015000EFFFBE01C4FF7F3F00000000000289885E
:10016000083CABAAAA2A3E000000803F028988080A
:100170003EABAAAAAABE000000803F0664EC1B3C6E
:1001800004BC163E3BE5B93CC93C37C29E5A3D66AD
:100190000498083EEA69AAAA3E000000803F636412
:1001A000696E6F70737578585B004E414E494E49C9
:1001B0005459494E46CDCCCC3D0AD7233C17B7D134
:1001C0003877CC2B329595E6241FB14F0A000020DA
:1001D000410000C84200401C4620BCBE4CCA1B0E59
:1001E0005AAEC59D740011241FBECFE5D8E0DEBF16
:1001F000CDBF10E0A0E6B0E0EAEFF6E302C0059064
:100200000D92AC3DB107D9F721E0ACEDB0E001C0F3
:100210001D92A53EB207E1F70E94070D0C947B1BCF
:100220000C9400005D9BFECF8CB908955F9BFECFC0
:100230008CB10895EF92FF920F931F93CF93DF93AA
:100240001092F2001092AD01E0914301F09144014F
:100250008081811106C0B4C02196D0934401C0931F
:100260004301C0914301D0914401F8800F2D10E06B
:10027000C8010E94D514892B79F7B80186E690E071
:100280000E94E614892B79F081E08093F200CE0180
:100290000196909344018093430188818093AD013E
:1002A000CEEAD1E07BC0C8010E94CD14892B99F41D
:1002B00040C07E018FEFE81AF80AC80101969093BA
:1002C000440180934301F801808190E00E94DE1494
:1002D0008883E70102C0CDEAD1E00091430110918B
:1002E0004401F801F0806F2D70E080E790E00E94FB
:1002F000E614892B49F4F110DCCF06C00F5F1F4FC5
:100300001093440100934301009143011091440173
:10031000F801F0808F2D90E00E94D514892B71F7A1
:10032000F8E2FF1202C084E001C082E08093F20094
:1003300035C08F2D90E0C0970A97C0F08EE2F81676
:10034000C1F0CDEAD1E02AC07E01EFEFEE1AFE0A3D
:10035000C80101969093440180934301F801808184
:1003600090E00E94DE148883E70105C0CDEAD1E069
:1003700002C0CDEAD1E00091430110914401F8019F
:10038000F0806F2D70E080E790E00E94E614892BEA
:1003900011F4F110D9CF83E08093F200188280919C
:1003A000F200823069F48091AE01882349F089E03F
:1003B000EDE7F0E0A3EFB0E001900D928A95E1F750
:1003C000DF91CF911F910F91FF90EF9008958F9241
:1003D0009F92AF92BF92CF92DF92EF92FF92CF9314
:1003E0000E9467044B015C01C12CD12C76011DC019
:1003F0000E941A01C701B6010E9467046B017C01CB
:10040000CB3259F0CD3289F49B01AC01C501B40166
:100410000E94740D4B015C0108C09B01AC01C50139
:10042000B4010E94750D4B015C01C091AD01CB324E
:10043000F9F2CD32E9F2C501B401CF91FF90EF900E
:10044000DF90CF90BF90AF909F908F900895DF92F4
:10045000EF92FF920F931F93CF93DF93CDB7DEB749
:10046000C055D1090FB6F894DEBF0FBECDBFE62E42
:10047000F72E082FD92E1091F200143041F46DEAB6
:1004800071E0CE0101960E94FA140E941A01E091D7
:10049000AD01E83209F081C10E941A016E2D7F2D55
:1004A000802F9D2D0E94E701E62EF72E082FD92ED2
:1004B0008091AD01893249F086E0E3EDF0E0A3EFF1
:1004C000B0E001900D928A95E1F7143009F061C116
:1004D00067E870E0CE0101960E94F114892B89F43F
:1004E00025E33AEF4EE85CE36E2D7F2D802F9D2DA6
:1004F0000E94FF110E940613E62EF72E082FD92E18
:1005000048C16CE870E0CE0101960E94F114892B7D
:1005100089F425E33AEF4EE85CE36E2D7F2D802FC2
:100520009D2D0E94FF110E94470EE62EF72E082FE8
:10053000D92E2FC161E970E0CE0101960E94F1141D
:10054000892B89F425E33AEF4EE85CE36E2D7F2D8D
:10055000802F9D2D0E94FF110E948C13E62EF72EF6
:10056000082FD92E16C166E870E0CE0101960E94D0
:10057000F114892B89F46E2D7F2D802F9D2D0E94E3
:10058000E10D20EE3EE245E652E40E94FF11E62E28
:10059000F72E082FD92EFDC06BE870E0CE01019632
:1005A0000E94F114892B89F46E2D7F2D802F9D2DB3
:1005B0000E94630D20EE3EE245E652E40E94FF11E8
:1005C000E62EF72E082FD92EE4C060E970E0CE01A8
:1005D00001960E94F114892B89F46E2D7F2D802FB6
:1005E0009D2D0E94FC0D20EE3EE245E652E40E9465
:1005F000FF11E62EF72E082FD92ECBC065E970E04B
:10060000CE0101960E94F114892B59F46E2D7F2D95
:10061000802F9D2D0E94E012E62EF72E082FD92E56
:10062000B8C06AE970E0CE0101960E94F114892BEE
:1006300059F46E2D7F2D802F9D2D0E94300EE62EB9
:10064000F72E082FD92EA5C06FE970E0CE010196D4
:100650000E94F114892B59F46E2D7F2D802F9D2D32
:100660000E945813E62EF72E082FD92E92C064EA66
:1006700070E0CE0101960E94F114892B59F46E2D81
:100680007F2D802F9D2D0E948311E62EF72E082F9F
:10069000D92E7FC067EA70E0CE0101960E94F11466
:1006A000892B59F46E2D7F2D802F9D2D0E94731163
:1006B000E62EF72E082FD92E6CC06BEA70E0CE0123
:1006C00001960E94F114892B59F46E2D7F2D802FF5
:1006D0009D2D0E94C60EE62EF72E082FD92E59C04A
:1006E0006DEA70E0CE0101960E94F114892B59F455
:1006F0006E2D7F2D802F9D2D0E941413E62EF72E38
:10070000082FD92E46C062EB70E0CE0101960E9400
:10071000F114892B79F42E2D3F2D402F5D2D6E2D58
:100720007F2D802F9D2D0E94FF11E62EF72E082F82
:10073000D92E2FC066EB70E0CE0101960E94F11415
:10074000892B59F46E2D7F2D802F9D2D0E94BC1278
:10075000E62EF72E082FD92E1CC06CEB70E0CE01D0
:1007600001960E94F114892B59F46E2D7F2D802F54
:100770009D2D0E94B50FE62EF72E082FD92E09C009
:1007800086E0E3EDF0E0A3EFB0E001900D928A95F2
:10079000E1F70E941A011D2D2CC08091F2008230D9
:1007A00019F0833089F01BC0F0E0E154F109EE0F3D
:1007B000FF1FEE0FFF1FEB5BFE4FE080F180028119
:1007C00013810E941A0115C08DEA91E00E94C6149F
:1007D000E62EF72E082F192F0E941A010AC08DE06D
:1007E000E0ECF0E0A3EFB0E001900D928A95E1F724
:1007F0001D2D6E2D7F2D802F912FC05BDF4F0FB6EB
:10080000F894DEBF0FBECDBFDF91CF911F910F9146
:10081000FF90EF90DF900895CF92DF92EF92FF92DA
:10082000CF936B017C018091F200813049F4C0913B
:10083000AD01CB3211F0CD3229F40E941A0103C070
:10084000C0E001C0C0E0C701B6010E942702CD325E
:1008500009F49058CF91FF90EF90DF90CF900895DA
:10086000CF92DF92EF92FF920F931F93CF93DF937C
:100870000E940C04062F172FD82FC92FC12CD12C62
:10088000760114C00E941A01C701B6010E940C042F
:100890006B017C019B01AC01602F712F8D2F9C2F70
:1008A0000E946C12062F172FD82FC92F8091AD01EF
:1008B0008E3541F3602F712F8D2F9C2FDF91CF91BB
:1008C0001F910F91FF90EF90DF90CF9008958F923E
:1008D0009F92AF92BF92CF92DF92EF92FF92CF930F
:1008E0000E9430044B015C01C12CD12C76011DC04B
:1008F0000E941A01C701B6010E9430046B017C01FD
:10090000CF3259F0C83789F49B01AC01C501B4015D
:100910000E94FF114B015C0108C09B01AC01C501A5
:10092000B4010E944C0E4B015C01C091AD01C8376F
:10093000F9F2CF32E9F2C501B401CF91FF90EF9007
:10094000DF90CF90BF90AF909F908F9008958F923F
:100950009F92AF92BF92CF92DF92EF92FF920F934E
:100960001F93CF93DF93CDB7DEB7C055D1090FB634
:10097000F894DEBF0FBECDBF4B015C018091F20049
:10098000823009F043C0C0904301D09044016DEA29
:1009900071E0CE0101960E94FA140F2EFDEAEF2EAF
:1009A000F1E0FF2EF02DF701008110E00154110954
:1009B0000E941A01F70180818D3371F0D0924401B9
:1009C000C0924301BE016F5F7F4FC7010E94FA14BE
:1009D00082E08093F2001AC00E941A01C501B4019E
:1009E0000E94E701000F111F000F111FF801EB5BC0
:1009F000FE4F062F172F282F392F008311832283B4
:100A00003383562F472F382F292F08C0C501B40133
:100A10000E94E701562F472F382F292F652F742F5B
:100A2000832F922FC05BDF4F0FB6F894DEBF0FBE4F
:100A3000CDBFDF91CF911F910F91FF90EF90DF908D
:100A4000CF90BF90AF909F908F9008951092F30039
:100A500090934401809343010E941A018091AD015B
:100A600081110EC086E0E3EDF0E0A3EFB0E001906D
:100A70000D928A95E1F750E040E030E020E01BC0A5
:100A800060E070E0CB010E94A7042091AD01222319
:100A900071F026E0E3EDF0E0A3EFB0E001900D92FD
:100AA0002A95E1F7562F472F382F292F04C0562FAC
:100AB000472F382F292F652F742F832F922F0895BA
:100AC000CF92DF92EF92FF92DC01FC0101900020B7
:100AD000E9F73197BF01681B790B20E030E00EC0C9
:100AE000FD01E20FF31F90814FE9490F4A3120F4D5
:100AF000983711F0905290832F5F3F4F261737079A
:100B00007CF3CD010E9426056B017C0180E090E022
:100B100005C0FC01E452FF4F10820196843191051B
:100B2000C4F38091F30081111BC020E030E0A901E3
:100B3000C701B6010E942B0E88234CF42FE632E148
:100B400043E05AE3C701B6010E94740D0DC02FE6C1
:100B500032E143E05AE3C701B6010E94750D04C0BB
:100B60006BE67BE08EE59DE5FF90EF90DF90CF9008
:100B7000089595B39F7C90629093070195BB92B3C3
:100B800093709093F000282F2C7F2093EF00829594
:100B9000880F880F807C8093F10035B33F73922BD0
:100BA0009093F000832B8093070192BB8091070103
:100BB00085BB85B38F7C8093070185BB81EE94E074
:100BC0000197F1F700C00000089595B390639093EA
:100BD000070195BB92B393709093F000282F2C7F60
:100BE0002093EF008295880F880F807C8093F1001E
:100BF00035B33F73922B9093F000832B80930701C2
:100C000092BB8091070185BB85B38F7C8061809307
:100C1000070185BB81EE94E00197F1F700C0000069
:100C2000089582E08BB988E98AB986E880BD10BC56
:100C30008CE089B9089580E090E00DC0FC01EF5C84
:100C4000FE4F1082FC01E452FF4F1082FC01E95379
:100C5000FE4F108201968231910584F310922F018C
:100C600010922E0181E00E94B9050895CF93DF9381
:100C700081E00E94B905C0E0D0E00AC0FE01E9535E
:100C8000FE4F80810E94E50586E00E94B90521960D
:100C900080912E0190912F01C817D9077CF3DF9125
:100CA000CF9108952F923F924F925F926F927F92D1
:100CB0008F929F92AF92BF92CF92DF92EF92FF926C
:100CC0000F931F93CF93DF93CDB7DEB7E1970FB6A6
:100CD000F894DEBF0FBECDBF87EC91E00E946005A7
:100CE0006B017C0121E236EE45EB56ED0E942B0EA6
:100CF000181654F429EA3FE543E658E5C701B60162
:100D00000E942C11882354F08CE0EDECF0E0ACED67
:100D1000B0E001900D928A95E1F78FC220E030E0BB
:100D2000A901C701B6010E942B0E88233CF4F7FAF3
:100D3000F094F7F8F09481E090E002C080E090E059
:100D4000892B89F08DE28093DC001F8A80E4888FF4
:100D50009AE7998FE0E1EA8F83EF8B8F9AE59C8F7A
:100D60001D8E1E8E0EC01F8AE0E8E88F86EC898FEC
:100D700094EA9A8FEEE7EB8F8DE88C8F93E09D8F4E
:100D80001E8EECEDF0E001900020E9F73197CF01E5
:100D90008C5D90409C838B8391E09F87188A198A91
:100DA0001A8A1B8A1C8A1D8A1E8A44244394512C49
:100DB000612C712CA12CB12C10E000E034C0242D4A
:100DC000352D462D572D6A2D7B2D812F902F01E03B
:100DD0000E948F14422E532E642E752EB62FA72FED
:100DE000F82FE92F02E00E948F14A22EB32EC42EFA
:100DF000D52EE62EF72E082F192F242D352D462D12
:100E0000572D6B2F7A2F8F2F9E2F0E94A814422EC2
:100E1000532E642E752EA62EB72E182F092FC82CF0
:100E2000D92CE980FA8020E030E0A901C701B601A1
:100E30000E942C1118169CF520E030E040E251E4AD
:100E4000C701B6010E94FF11862E972E89839A83CF
:100E50002F89388D498D5A8D6B8D7C8D8D8D9E8D12
:100E60000E94340F9B01AC01682D792D89819A81F4
:100E70000E942B0E88239CF4242D352D462D572DB2
:100E80006A2D7B2D812F902F273E33404105510540
:100E9000610571058105910509F00CF490CF4F862D
:100EA000588A698A7A8AAB8ABC8A1D8B0E8BC701E5
:100EB000B6010E94F80E422E532E642E752E862EF9
:100EC000972E8A839983AF84B888C988DA88EB889B
:100ED000FC88012F1E890E94B8132F8F38A349A3C5
:100EE0005AA36BA37CA38DA39EA32FA338A749A7C6
:100EF0005AA76BA77CA78DA79EA7242D352D462D1D
:100F0000572D682D792D8A8199810E94BA132D83DE
:100F10003E834F83588769877A878B879C871E8695
:100F20001D861FA61982912C812C712C612C512CAD
:100F3000412C212C312C2FA53981492D582D672D7D
:100F4000762D852D942D01E00E948F14822E932EF4
:100F50004A835983B62FA72FF82FE92F02E00E946A
:100F60008F14A22EB32EC42ED52EE62EF72E082FC8
:100F7000192F282D392D4A8159816B2F7A2F8F2FC8
:100F80009E2F0E94A814422E532E642E752E862E5C
:100F9000972E8A8399830F2EFAE0AF2EF02DB12C75
:100FA000C12CD12CE12CF12C00E010E02D813E81F0
:100FB0004F81588569857A858B859C850E94B813F9
:100FC000A22EB32EC42ED52EE62EF72E082F192FC3
:100FD000242D352D462D572D682D792D8A81998107
:100FE0000E94A8142FA73983942E852E762E672E63
:100FF000582E492E0F2EFAE0AF2EF02DB12CC12C19
:10100000D12CE12CF12C00E010E02D813E814F81AC
:10101000588569857A858B859C850E94BA132D83B6
:101020003E834F83588769877A878B879C87EFEF4A
:101030002E1A3E0AA0E00E94BA1411F00CF07BCFE9
:101040003E862D868FA5212C312C4A82452C582E88
:101050008B819C8199AB88AB37C00F2EFAE0AF2E05
:10106000F02DB12CC12CD12CE12CF12C00E010E0A2
:10107000252D3981492D582D672D762D842D9A8166
:101080000E94B8132B83252D3981492D582D672DAA
:10109000762D842D9A810E94BA13522E3983942E74
:1010A000852E762E672E482E9A83E8A9F9A9E45258
:1010B000FF4F8B81805D80839FEF291A390A88A9B1
:1010C00099A9019699AB88AB8D859E85281639061E
:1010D00024F288A999A99C838B832F8D38A149A1DB
:1010E0005AA16BA17CA18DA19EA1A0E00E94BA147F
:1010F00009F4A3C00F2EF4E6AF2EF02DB12CC12CB5
:10110000D12CE12CF12C00E010E02F89388D498D95
:101110005A8D6B8D7C8D8D8D9E8D0E94BA13A22E63
:10112000B32EC42ED52EE62EF72E082F192F2D8183
:101130003E814F81588569857A858B859C850E9483
:10114000B1140CF07AC06B807C809FEF691A790A29
:10115000EB81FC81E452FF4F8EE28083EFA1F8A582
:10116000B9A51CA50DA5FEA456C02E2F3F2F4B2FB1
:101170005AA56BA5712F802F9F2D01E00E948F141F
:10118000822E932E4A835983B62FA72FF82FE92F4B
:1011900002E00E948F14A22EB32EC42ED52EE62E6E
:1011A000F72E082F192F282D392D4A8159816B2FA1
:1011B0007A2F8F2F9E2F0E94A8142983232E342E3E
:1011C000452E562E7D838B839A83AF84B888C98839
:1011D000DA88EB88FC880D891E890E94BA134301C6
:1011E000EFEF8E1A9E0AF301E452FF4F205D208339
:1011F0002981322D432D542D652D7D818B819A813E
:101200000E94B813E22FF32FB42F5AA76BA7172F02
:10121000082FF92E34018FE06816710474F42E2F14
:101220003F2F4B2F5AA56BA5712F802F9F2DA0E02C
:101230000E94BA1411F00CF098CF80EC0E94B9050E
:1012400080E090E09C838B8311C0EB81FC81E452B1
:10125000FF4F8081882371F00E94E50586E00E949F
:10126000B9058B819C8101969C838B838B819C81AA
:1012700040975CF381E080932D01E1960FB6F894DE
:10128000DEBF0FBECDBFDF91CF911F910F91FF90B9
:10129000EF90DF90CF90BF90AF909F908F907F9016
:1012A0006F905F904F903F902F900895CF93DF9372
:1012B000D82FC62F80912D01882339F091E081111C
:1012C00090E090932D010E941B0620912E013091F9
:1012D0002F01C901019690932F0180932E01F901EE
:1012E000E953FE4FD083FC01E953FE4F1082CC231B
:1012F00051F00E943606E0912E01F0912F01E05D41
:10130000FE4F81E08083DF91CF91089580912D0180
:10131000882339F091E0811190E090932D010E9493
:101320001B0680912E0190912F01009721F10197CA
:10133000FC01EF5CFE4F108215C0FC01E953FE4F2B
:1013400010829C0121503109F901EF5CFE4F408170
:10135000442339F090932F0180932E010E9436068A
:101360000895C9011816190644F310922F0110921E
:101370002E010E9436060895CF93DF9380912D01B0
:10138000882309F455C08FE19EE40197F1F700C06E
:101390000000C0E0D0E017C08BE49DE10197F1F7B9
:1013A00000C00000FE01E953FE4F80819FEB980FC3
:1013B0009A3128F490E080960E944C1503C090E08A
:1013C0000E944C15219680912E0190912F01C817F3
:1013D000D90714F38BE49DE10197F1F700C00000F9
:1013E00083E290E00E944C15C0E0D0E014C0FE0102
:1013F000E452FF4F8081882389F08BE49DE10197BF
:10140000F1F700C00000FE01E452FF4F808190E040
:101410000E944C152196C231D1054CF38BE49DE11D
:101420000197F1F700C0000080E490E00E944C15A5
:10143000DF91CF910895C59B7BC00E941B068CB1A4
:101440008CB18CB18CB18CB182E08BB9C59B04C0DE
:1014500098B380E2892788BB84E50E94E50586E091
:101460000E94B90582E70E94E50586E00E94B90561
:1014700081E60E94E50586E00E94B9058EE60E949D
:10148000E50586E00E94B90583E70E94E50586E050
:101490000E94B9058DE60E94E50586E00E94B90527
:1014A00089E60E94E50586E00E94B90583E70E946F
:1014B000E50586E00E94B90583E70E94E50586E020
:1014C0000E94B90589E60E94E50586E00E94B905FB
:1014D0008FE60E94E50586E00E94B9058EE60E942F
:1014E000E50586E00E94B90580EC0E94B90585E417
:1014F0000E94E50586E00E94B90582E70E94E505A5
:1015000086E00E94B90582E70E94E50586E00E9418
:10151000B9058FE60E94E50586E00E94B90582E7DD
:101520000E94E50586E00E94B90581E080932D01C7
:101530000895CF93DF9388E091E09F938F9389ED97
:1015400090E09F938F930E9453150E941B060F906B
:101550000F900F900F90C0E0D0E012C0FE01E85F46
:10156000FE4F8081833221F480EC0E94B9050BC0CC
:10157000882349F00E94E50586E00E94B90521967E
:10158000C232D1055CF3219610C0FE01E85FFE4F28
:101590008081882369F0FE01E452FF4F80830E941E
:1015A000E50586E00E94B9052196C232D1056CF3AB
:1015B00080910A01882331F0C59B04C098B380E272
:1015C000892788BB80E090E005C0FC01E85FFE4F02
:1015D0001082019684329105C4F381E080932D013D
:1015E000DF91CF91089581E088BB89B3813019F4F0
:1015F0000E941B06089589B3823029F461E087E3D5
:101600000E945609089589B3843029F461E088E383
:101610000E945609089589B3883029F461E089E36E
:101620000E945609089589B3803129F461E088E762
:101630000E945609089589B3803229F461E08FE24F
:101640000E945609089589B3803419F40E948609CE
:10165000089589B38038D1F460E083E70E94560989
:1016600060E089E60E94560980912C01882349F0A8
:1016700060E08EE60E94560961E088E60E94560905
:10168000089561E08EE60E945609089583B38C7038
:101690008430D1F460E083E60E94560960E08FE672
:1016A0000E94560980912C01882349F060E083E76D
:1016B0000E94560961E088E60E945609089561E09B
:1016C00083E70E94560908958830C9F460E084E7F2
:1016D0000E94560960E081E60E94560980912C0123
:1016E000882349F060E08EE60E94560961E088E6B2
:1016F0000E945609089561E08EE60E9456090895F9
:1017000082E088BB89B3813029F461E08DE20E94D8
:101710005609089589B3823029F461E084E30E9478
:101720005609089589B3843029F461E085E30E9465
:101730005609089589B3883029F461E086E30E9450
:101740005609089589B3803129F461E08DE20E9441
:101750005609089589B3803469F460E08CE60E94EC
:10176000560960E08FE60E94560961E087E60E9414
:101770005609089589B3803849F460E08CE60E94E8
:10178000560961E08EE60E945609089583B38C7075
:10179000843029F461E085E60E9456090895883076
:1017A00039F481E090912C01911180E080932C011B
:1017B000089580E188BB89B3813089F460E08FE2CD
:1017C0000E94560960E081E30E94560960E080E3D0
:1017D0000E94560961E080E30E945609089589B38A
:1017E000823029F461E081E30E945609089589B3AB
:1017F000843029F461E082E30E945609089589B398
:10180000883029F461E083E30E945609089589B382
:10181000803129F461E08BE20E945609089589B372
:10182000803469F460E081E30E94560960E080E35F
:101830000E94560961E08EE50E945609089589B319
:10184000803829F461E088E20E945609089583B344
:101850008C70843029F461E089E20E945609089571
:10186000883021F461E08EE50E945609089588E0F1
:1018700088BB89B3813089F460E083E70E94560910
:1018800060E081E70E94560960E082E70E94560905
:1018900061E084E70E945609089589B3823029F4F3
:1018A00061E080E30E945609089589B3843029F4E9
:1018B00061E08EE20E945609089589B3883029F4C8
:1018C0000E9452060E94BC09089589B3803129F410
:1018D00061E08BE20E945609089589B38034F1F4E7
:1018E00060E081E60E94560960E083E70E945609A5
:1018F00060E089E60E94560980912C01882349F016
:1019000060E08EE60E94560961E088E60E94560972
:10191000089561E08EE60E945609089589B38038E3
:10192000F1F460E081E60E94560960E083E60E94DF
:10193000560960E08FE60E94560980912C018823A9
:1019400049F060E083E70E94560961E088E60E9462
:101950005609089561E083E70E945609089583B30C
:101960008C708430E9F460E081E60E94560960E002
:1019700084E70E94560960E081E60E945609809142
:101980002C01882349F060E08EE60E94560961E050
:1019900088E60E945609089561E08EE60E94560985
:1019A00008951F920F920FB60F9211248F938BB14F
:1019B0008C7119F088B3806288BB8F910F900FBE35
:1019C0000F901F9018951F920F920FB60F9211242F
:1019D0002F933F934F935F936F937F938F939F9337
:1019E000AF93BF93EF93FF930E94990AFF91EF91FA
:1019F000BF91AF919F918F917F916F915F914F9127
:101A00003F912F910F900FBE0F901F9018951ABA0B
:101A10008FEF87BB83EF84BB8EEF81BB80E28BBFF0
:101A200084B7806484BF0E94110660E070E082E1A8
:101A300091E00E940115C9EDD1E09B838A8366E1A4
:101A400071E080E090E00E9401159983888388E32B
:101A50000E94B9058FE00E94B90581E00E94B90596
:101A600080E80E94B90578940E94F30A0E941B0A3C
:101A70008BE195E20197F1F700C000000E941B0A7C
:101A80000E94800B0E941B0A8BE195E20197F1F7FF
:101A900000C000000E941B0A0E94D90B0E941B0A72
:101AA0008BE195E20197F1F700C000000E941B0A4C
:101AB0000E94370C0E941B0A8BE195E20197F1F717
:101AC00000C00000D1CF9F939F770E94CC0F0F9052
:101AD000002042F49058A2EA2AED3FE049E450E4A5
:101AE0000E948C0D0C94C6105058BB27AA270E9448
:101AF0008C0D0C94C6100E948D1038F00E9494102A
:101B000020F039F49F3F19F426F40C943F100EF4A2
:101B1000E095E7FB0C941010E92F0E94EB1058F3AE
:101B2000BA17620773078407950720F079F4A6F5C2
:101B30000C9425110EF4E0950B2EBA2FA02D0B015D
:101B4000B90190010C01CA01A0011124FF27591B02
:101B500099F0593F50F4503E68F11A16F040A22F08
:101B6000232F342F4427585FF3CF46953795279579
:101B7000A795F0405395C9F77EF41F16BA0B620B78
:101B8000730B840BBAF09150A1F0FF0FBB1F661FBF
:101B9000771F881FC2F70EC0BA0F621F731F841F02
:101BA00048F4879577956795B795F7959E3F08F028
:101BB000B0CF9395880F08F09927EE0F97958795EA
:101BC00008959F939F77EEE389379E0728F4E4E515
:101BD000F0E00E9479100CC00E94CC0F9058A2EA4D
:101BE0002AED3FE049EC5FE30E948C0D0E94C61095
:101BF0000F9007FC90580895DF93DD27B92FBF772A
:101C000040E85FE31616170648075B0718F4D92F5C
:101C10000E9431119F938F937F936F930E9454136F
:101C2000E8E6F0E00E9452100E94C6102F913F910A
:101C30004F915F910E941212DD2351F09058A2EA59
:101C40002AED3FE049EC5FE3D0785D270E948C0DE0
:101C5000DF910C94C6100E94EC0F08F481E0089507
:101C600090680E94C60E4FEF5FEF0E943D119F9358
:101C70008F937F936F9342E050E00E943D110E944A
:101C800031112F913F914F915F910C94750D0E94EE
:101C90009D10E3950C94D7100E94600E0C94C61012
:101CA0000E94941058F00E948D1040F029F45F3F7C
:101CB00029F00C94101051110C9426110C943F1023
:101CC0000E94EB1068F39923B1F3552391F3951B10
:101CD000550BBB27AA2762177307840738F09F5F4D
:101CE0005F4F220F331F441FAA1FA9F335D00E2EBA
:101CF0003AF0E0E832D091505040E695001CCAF727
:101D00002BD0FE2F29D0660F771F881FBB1F2617E9
:101D100037074807AB07B0E809F0BB0B802DBF01C0
:101D2000FF2793585F4F3AF09E3F510578F00C948F
:101D300010100C9426115F3FE4F3983ED4F386957F
:101D400077956795B795F7959F5FC9F7880F911DB0
:101D50009695879597F90895E1E0660F771F881F9C
:101D6000BB1F621773078407BA0720F0621B730B4F
:101D7000840BBA0BEE1F88F7E095089529F416F04E
:101D80000C9410100C9425110C943F100E94F31029
:101D9000A8F39638A0F707F80F92E8942BE33AEAF5
:101DA00048EB5FE70E9415120F920F920F924DB70A
:101DB0005EB70F920E94CB11E5E9F0E00E9452104D
:101DC0004F915F91EF91FF91E595EE1FFF1F49F055
:101DD000FE57E0684427EE0F441FFA95E1F741955E
:101DE000550B0E943D110F9007FE0C943111089580
:101DF000BEE304D008F490E80895BFE32227332718
:101E0000A9010E94F31060F19F5748F1B91740F102
:101E1000BFE3B91B9927B8503AF4660F771F881FA4
:101E2000991FB395D2F316C0B8504AF0232F342F20
:101E3000452F562F672F782F8827B850BAF7B85FED
:101E400049F08695779567955795479537952795E6
:101E5000BA95B9F716F40E944210889408958894B0
:101E600060E070E0CB01089597FB16F40E944210E9
:101E70000C94780FE89409C097FB3EF490958095F8
:101E8000709561957F4F8F4F9F4F9923A9F0F92F40
:101E900096E9BB279395F695879577956795B795BE
:101EA000F111F8CFFAF4BB0F11F460FF1BC06F5FA4
:101EB0007F4F8F4F9F4F16C0882311F096E911C0B6
:101EC000772321F09EE8872F762F05C0662371F0D7
:101ED00096E8862F70E060E02AF09A95660F771FEB
:101EE000881FDAF7880F9695879597F90895E894F3
:101EF000F92F96EBFF2381F0121613061406440BFC
:101F00009395F69587957795679557954040FF236C
:101F1000B9F71BC099270895882351F49850D2F738
:101F2000872B762F652F542F432F322F20E0B1F3CC
:101F3000121613061406440B88233AF09A95440FA0
:101F4000551F661F771F881FCAF755234AF4440F91
:101F5000551F11F460FF04C06F5F7F4F8F4F9F4F7D
:101F6000880F9695879597F908950E940D1190F026
:101F70009F3748F4911116F00C94261160E070E040
:101F800080E89FEB089526F41B16611D711D811DCD
:101F90000C9416100C943110DF93CF931F930F9372
:101FA0008B01EC01EDEBF0E00E9452100E94C61094
:101FB0009801AE018B01EC0160E070E080E89FE3E6
:101FC0000E94740D0E9414139801AE010F911F918D
:101FD000CF91DF910C941212990F0008550FAA0BA4
:101FE000E0E8FEEF16161706E807F907C0F012162C
:101FF0001306E407F50798F0621B730B840B950B2F
:1020000039F40A2661F0232B242B252B21F4089583
:102010000A2609F4A140A6958FEF811D811D089520
:1020200097F99F6780E870E060E00895882371F475
:10203000772321F09850872B762F07C0662311F461
:1020400099270DC09051862B70E060E02AF09A9598
:10205000660F771F881FDAF7880F9695879597F98F
:1020600008959F3F31F0915020F4879577956795BB
:10207000B795880F911D9695879597F908959FEFCD
:1020800080EC089590958095709560955095409559
:10209000309521953F4F4F4F5F4F6F4F7F4F8F4F81
:1020A0009F4F0895DF93CF931F930F93FF92EF926B
:1020B000DF927B018C01689406C0DA2EEF010E944A
:1020C0001212FE01E894A591259135914591559103
:1020D000A6F3EF010E948C0DFE019701A801DA948E
:1020E00069F7DF90EF90FF900F911F91CF91DF91F3
:1020F00008959F938F937F936F93FF93EF939B012B
:10210000AC010E94FF11EF91FF910E9452102F919C
:102110003F914F915F910C94FF1100240A94161681
:10212000170618060906089500240A9412161306C5
:102130001406050608950C943F100E94F310D8F37E
:10214000E894E0E0BB279F57F0F02AED3FE049EC30
:1021500006C0EE0FBB0F661F771F881F28F0B23A2C
:1021600062077307840728F0B25A620B730B840B63
:10217000E3959A9572F7803830F49A95BB0F661FF5
:10218000771F881FD2F790480C943310092E0394C0
:10219000000C11F4882352F0BB0F40F4BF2B11F454
:1021A00060FF04C06F5F7F4F8F4F9F4F0895EF9385
:1021B000E0FF07C0A2EA2AED3FE049EC5FEB0E9496
:1021C0008C0D0E94C6100F90039401FC9058E5EE10
:1021D000F0E00C94791057FD9058440F551F59F0BA
:1021E0005F3F71F04795880F97FB991F61F09F3F04
:1021F00079F087950895121613061406551FF2CF2D
:102200004695F1DF08C0161617061806991FF1CF7C
:10221000869571056105089408950E94F310A0F059
:10222000BEE7B91788F4BB279F3860F41616B11DB6
:10223000672F782F8827985FF7CF869577956795D2
:10224000B11D93959639C8F30895E894BB27662786
:102250007727CB0197F908950E94EC0F08F48FEFD0
:1022600008959B01AC0160E070E080E89FE30C946E
:102270004C0E0C9410100C9431100E94F310D8F3F3
:102280009923C9F3940F511DA3F39150504094F03A
:1022900059F0882332F0660F771F881F9150504005
:1022A000C1F79E3F51052CF7880F911D9695879594
:1022B00097F908955F3FACF0983E9CF0BB27869558
:1022C00077956795B79508F4B1609395C1F7BB0F03
:1022D00058F711F460FFE8CF6F5F7F4F8F4F9F4F2C
:1022E000E3CF0C9426110E94831129ED3BE54EEDBE
:1022F0005EE30C94FF1116F00C9431100C943F1017
:1023000068940C9410100E94F310A8F39923C1F361
:10231000AEF3DF93CF931F930F93FF92C92FDD2767
:1023200088232AF02197660F771F881FDAF720E0AD
:1023300030E040E85FEB9FE3883920F0803E38F0E2
:1023400021968F770E94750DE3E0F1E004C00E94B2
:10235000750DE0E3F1E00E9452108B01BE01EC012B
:10236000FB2E6F5771097595771F880B990B0E948B
:102370003C0F28E132E741E35FE30E941212AF2DE8
:102380009801AE01FF900F911F91CF91DF910E94B4
:102390008C0D0C94C610FA01DC01AA0FBB1F9B0127
:1023A000AC01BF5728F4222733274427507820C098
:1023B000B75190F4AB2F0024469537952795011C13
:1023C000A395D2F3002071F0220F331F441FB39561
:1023D000DAF30ED00C94740D61307105A0E88A0711
:1023E000B94630F49B01AC0166277727882790789F
:1023F000309621F0208331834283538308950E94D5
:1024000012120C94C6100E948D1038F00E94941085
:1024100020F0952311F00C9410100C943F1011240F
:102420000C9426110E94EB1070F3959FC1F3950F49
:1024300050E0551F629FF001729FBB27F00DB11D48
:10244000639FAA27F00DB11DAA1F649F6627B00DD8
:10245000A11D661F829F2227B00DA11D621F739FC1
:10246000B00DA11D621F839FA00D611D221F749FCF
:102470003327A00D611D231F849F600D211D822F16
:10248000762F6A2F11249F5750409AF0F1F088233D
:102490004AF0EE0FFF1FBB1F661F771F881F91506A
:1024A0005040A9F79E3F510580F00C9410100C94F9
:1024B00026115F3FE4F3983ED4F3869577956795B0
:1024C000B795F795E7959F5FC1F7FE2B880F911D94
:1024D0009695879597F90895FA01EE0FFF1F3096AC
:1024E00021053105A1F16115710561F48038BFE363
:1024F0009B0749F168949038810561F08038BFEFFF
:102500009B0741F099234AF5FF3FE105310521057D
:1025100019F1E8940894E795D901AA2329F4AB2F7F
:10252000BE2FF85FD0F310C0FF5F70F4A695E0F700
:10253000F73950F019F0FF3A38F49F779F930DD098
:102540000F9007FC9058089546F00C943F1060E0FF
:1025500070E080E89FE308954FE79F775F934F9384
:102560003F932F930E9483112F913F914F915F9141
:102570000E94FF110C94C60E0E94F310E8F09E37E3
:10258000E8F09639B8F49E3848F4672F782F8827FA
:10259000985FF9CF86957795679593959539D0F3A0
:1025A000B62FB1706B0F711D811D20F48795779543
:1025B000679593950C9416100C9431100C94261179
:1025C0009F939F77FEE3803A9F0728F4EDE5F1E0C3
:1025D0000E94791017C090680E94C60E4FEF5FEFFF
:1025E0000E943D119F938F937F936F9342E050E041
:1025F0000E943D110E9431112F913F914F915F91A7
:102600000E94740D0F9007FC906808959F930E949C
:102610009D100F9007FCEE5F0C94D71019F416F480
:102620000C943F100C9431100E94F310B8F39923CE
:10263000C9F3B6F39F57550B87FF0E94B1130024CF
:10264000A0E640EA900180585695979528F4805C62
:10265000660F771F881F20F026173707480730F4CA
:10266000621B730B840B202931294A2BA6951794E2
:102670000794202531254A2758F7660F771F881FB2
:1026800020F026173707480730F4620B730B840BD2
:10269000200D311D411DA09581F7B901842F91585E
:1026A000880F9695879508959B01AC010C94FF11B6
:1026B0009F939F77FEE380319F0728F4ECE6F1E0DB
:1026C0000E94791025C0906841E050E00E943D11C1
:1026D0000E94C60E9F938F937F936F9320E030E00C
:1026E00040E85FE30E94750D2F913F914F915F91FC
:1026F0009F938F937F936F9360E070E080E89FE3F8
:102700000E94740D2F913F914F915F910E944C0E4A
:102710000F9007FC90580895DF93D92F0E949D10C9
:10272000E695D7952AED3FE049E45FE3B33A6207C7
:10273000730784079507D7953AF0A2EA49EC9068A9
:102740000E948C0D0E94C610EBE7F1E00E94791008
:10275000DD0F13F00E943111DD0F0BF49058DF9163
:10276000089591505040660F771F881FD2F7089543
:10277000689401C0E894F92FF12B12F00C94EC133B
:10278000A0E0B0E0E6ECF3E10C945E14092E0594B1
:1027900022F40E944814112392F4F0E80F26FFEF70
:1027A000E094F09400951095B094C094D094A194C6
:1027B000BF0ACF0ADF0AEF0AFF0A0F0B1F0B0E94A6
:1027C000F71307FC0E944814CDB7DEB7ECE00C9479
:1027D0007A14689401C0E8948F929F92CF93DF930C
:1027E0000E94F713DF91CF919F908F9008958824D6
:1027F0009924F401E401B0E49F93AA279A158B046D
:102800009C04ED05FE05CF05D007A10798F4AD2F78
:10281000DC2FCF2FFE2FE92D982C892E982F872F74
:10282000762F652F542F432F322F2227B85031F7A0
:10283000BF9127C01B2EBF91BB27220F331F441F00
:10284000551F661F771F881F991F881C991CEE1F34
:10285000FF1FCC1FDD1FAA1FBB1F8A149B04EC05A2
:10286000FD05CE05DF05A007B10748F08A189B08D3
:10287000EC09FD09CE09DF09A00BB10B21601A9408
:10288000E1F62EF49401AF01BE01CD01000C0895D4
:1028900060957095809590953095409550952195CF
:1028A0003F4F4F4F5F4F6F4F7F4F8F4F9F4F089559
:1028B0002F923F924F925F926F927F928F929F9250
:1028C000AF92BF92CF92DF92EF92FF920F931F933E
:1028D000CF93DF93CDB7DEB7CA1BDB0B0FB6F894EF
:1028E000DEBF0FBECDBF09942A88398848885F842F
:1028F0006E847D848C849B84AA84B984C884DF80A0
:10290000EE80FD800C811B81AA81B981CE0FD11D83
:102910000FB6F894DEBF0FBECDBFED0108950F9343
:10292000083090F0982F872F762F652F542F432F44
:10293000322F22270850F4CF220F331F441F551F78
:10294000661F771F881F991F0A95B2F70F91089588
:102950002A0D3B1D4C1D5D1D6E1D7F1D801F911F8F
:1029600008952A153B054C055D056E057F0580071A
:10297000910708950024A7FD00942A17300540050B
:102980005005600570058005900508956627772736
:102990000C94531985FD0C94A11A806291110C942A
:1029A000A11A81568A51D8F7089591110C94A11A51
:1029B000803219F089508550C8F708959111089513
:1029C00081568A5108F4805285580895FC018191FE
:1029D000861721F08823D9F7992708953197CF01D9
:1029E0000895FB01DC018D91019080190110D9F34C
:1029F000990B0895FB01DC0101900D920020E1F795
:102A000008950F931F93CF93DF93009731F46115CF
:102A1000710519F480E090E03AC08B01EC016EE0A2
:102A200070E081E090E00E941618FC01892B91F380
:102A300080E883830115110571F01387028781E80F
:102A400083838091D9019091DA01892B21F4F0934D
:102A5000DA01E093D9012097C9F0D187C08783813B
:102A6000826083838091DB019091DC01892B71F47A
:102A7000F093DC01E093DB018091DD019091DE01B8
:102A8000892B21F4F093DE01E093DD01CF01DF918A
:102A9000CF911F910F9108956091DB017091DC013E
:102AA0000E940C1B0895A0E0B0E0E9E5F5E10C946C
:102AB0006814AE014B5F5F4FFA0161917191AF01F4
:102AC0008091D9019091DA010E940517E2E00C94FF
:102AD000841420FD09C0FC0123FD05C022FF02C0B3
:102AE0007383628351834083089544FD17C046FD7C
:102AF00017C0AB01BC01DA01FB01AA0FBB1FEE1F1F
:102B0000FF1F1094D1F74A0F5B1F6E1F7F1FCB0171
:102B1000BA01660F771F881F991F09C033E001C0F3
:102B200034E0660F771F881F991F3150D1F7620F6D
:102B3000711D811D911D08950F931F93CF93DF93F6
:102B40008C01C8010E94CE1AEC0197FD08C00E94BA
:102B5000D514892BB1F7B801CE010E94481BCE01D4
:102B6000DF91CF911F910F9108958F929F92AF9215
:102B7000BF92EF92FF920F931F93CF93DF938C013D
:102B8000D62F7A01B22E0E94CE1A9C0133272B3207
:102B9000310531F02D32310561F48B2D8068B82E6E
:102BA000D15011F480E068C0C8010E94CE1A97FD90
:102BB000F9CFCB2DCD7F2B2D207309F58033F9F480
:102BC000AA24AA94AD0E09F443C0C8010E94CE1AEB
:102BD00097FD3EC09C012F7D33272835310549F4F0
:102BE000C264D250A9F1C8010E94CE1A97FF07C053
:102BF0002FC0B6FE02C0C26001C0C261DA2D812CB6
:102C0000912C540120ED280F283080F0C4FF04C01F
:102C1000B8010E94481B19C02A3040F0C6FFF8CF07
:102C20002F7D3FEE320F363098F727504C2FC501DD
:102C3000B4010E9475154B015C01C260D15059F07E
:102C4000C8010E94CE1A97FFDDCFC1FD04C0AACFF4
:102C5000812C912C5401C7FF08C0B094A09490948B
:102C60008094811C911CA11CB11C2C2FB501A401C6
:102C7000C7010E94691581E0DF91CF911F910F91EB
:102C8000FF90EF90BF90AF909F908F900895A0E23B
:102C9000B0E0EDE4F6E10C945B145C01962E7A0151
:102CA000F9018E010F5F1F4F680180E2D8011D926C
:102CB0008A95E9F7D50113968C9080E090E0612C1D
:102CC000712C30E061E070E083FC259183FE21915E
:102CD0008F01522E211103C080E090E092C02E356A
:102CE00011F4009751F1432F50E0481759073CF475
:102CF0002D3559F12D3219F4772009F103C07720D1
:102D000009F46AC0452D469546954695D601A40F0F
:102D1000B11D452D47708B0102C0000F111F4A9550
:102D2000E2F7A8015C91452B4C93651459F05614B9
:102D300010F45394E7CF5A94E5CF31E004C07724E0
:102D4000739401C0712C0196BFCF772019F08E814A
:102D500080628E83311103C08824839417C0F601EA
:102D60009E012F5D3F4F8081809581932E173F07F5
:102D7000D1F7F2CFE114F10429F0D7018C93F701D8
:102D800031967F019A94812C9920F9F0C5010E9417
:102D9000CE1A97FD18C0FC01FF2723E0F595E795B3
:102DA0002A95E1F7EC0DFD1D208130E0AC01477064
:102DB000552702C0359527954A95E2F720FDDACFD1
:102DC000B5010E94481B811087CFE114F10411F076
:102DD000D7011C92C80115C0422F469546954695CD
:102DE000D601A40FB11D422F47708B0102C0000F06
:102DF000111F4A95E2F7A8015C91452B4C93622E76
:102E0000A2CFA096EFE00C947714A0E0B0E0EBE046
:102E1000F7E10C945B146C01EB015A01FC01178281
:102E20001682512CF601E380FE01E3FC8591E3FE5E
:102E30008191182FEF01882309F4EEC090E00E94E1
:102E4000D514892B21F0C6010E949C15EBCF1532B9
:102E500041F4FE01E3FC1591E3FE1191EF011532FF
:102E600081F4C6010E94CE1A97FDD4C0412F50E0D4
:102E70009C01332724173507A9F2B6010E94481B8D
:102E8000CBC01A3239F4E3FC1591E3FE1191EF0146
:102E900001E001C000E0F12C20ED210F2A3080F488
:102EA00002606F2D70E080E090E040E20E947515B6
:102EB000F62EFE01E3FC1591E3FE1191EF01ECCF3C
:102EC00001FF03C0F11003C0A7C0FF24FA94183615
:102ED00019F01C3651F010C0FE01E3FC1591E3FE21
:102EE0001191EF01183641F408600460FE01E3FC23
:102EF0001591E3FE1191EF01112309F48DC0612FAB
:102F000070E08EE991E00E94A41A892B09F484C034
:102F100000FD07C0F50180809180C50102965C012B
:102F200002C0812C912C1E3651F4F6014681578146
:102F300060E070E0202FC4010E94691573CF133642
:102F4000A9F401FD02C0FF24F394C6010E94CE1A29
:102F500097FD60C08114910429F0F4018083C401BD
:102F600001964C01FA94F110F0CF50C01B3559F482
:102F70009E01A4016F2DC6010E944716EC01892B0A
:102F800009F044C03EC0C6010E949C1597FD42C096
:102F90001F3661F128F4143639F1193651F128C081
:102FA000133771F0153701F123C08114910429F012
:102FB000F4016082C40101964C01FA94FF2071F083
:102FC000C6010E94CE1A3C0197FD08C00E94D5148C
:102FD000892B59F3B601C3010E94481B8114910447
:102FE000A9F0F401108212C0006203C0006101C0A8
:102FF0000064202FA4016F2DC6010E94B515811118
:1030000005C0F6018381807329F406C000FD0ACF54
:10301000539408CF552019F0852D90E002C08FEF12
:103020009FEFCDB7DEB7EFE00C9477140F931F93AB
:10303000CF93DF93869F8001879F100D969F100D81
:103040001124C8010E943218EC01009729F0A80150
:1030500060E070E00E94C71ACE01DF91CF911F910E
:103060000F9108950F931F93CF93DF9382309105B3
:1030700010F482E090E0E091E101F091E20120E0C3
:1030800030E0A0E0B0E0309719F140815181028139
:10309000138148175907C8F08417950769F41097EA
:1030A00031F012960C93129713961C9327C000933D
:1030B000E1011093E20122C02115310519F04217F8
:1030C000530718F49A01BD01EF01DF01F801DBCFCE
:1030D00021153105F9F0281B390B2430310580F416
:1030E0008A819B816115710521F0FB0193838283A5
:1030F00004C09093E2018093E101FE01329644C046
:10310000FE01E20FF31F819391932250310939831D
:1031100028833AC02091DF013091E001232B41F454
:1031200020916200309163003093E0012093DF0131
:1031300020916000309161002115310541F42DB7D7
:103140003EB74091640050916500241B350BE0911F
:10315000DF01F091E001E217F307A0F42E1B3F0B13
:103160002817390778F0AC014E5F5F4F24173507F9
:1031700048F04E0F5F1F5093E0014093DF018193B1
:10318000919302C0E0E0F0E0CF01DF91CF911F9179
:103190000F910895CF93DF93009709F481C0FC014C
:1031A000329713821282A091E101B091E20110974F
:1031B00081F420813181820F931F2091DF013091B2
:1031C000E0012817390751F5F093E001E093DF01A2
:1031D00067C0ED0120E030E0CE17DF0740F44A8100
:1031E0005B819E0141155105F1F0EA01F5CFD383D2
:1031F000C28340815181840F951FC817D90759F4A4
:1032000088819981840F951F0296918380838A819A
:103210009B81938382832115310529F4F093E20188
:10322000E093E1013DC0E901FB83EA8349915991B3
:10323000C40FD51FEC17FD0761F480819181840FC5
:10324000951F0296E90199838883828193819B83EC
:103250008A83E0E0F0E012968D919C91139700979D
:1032600019F0FD01DC01F7CF8D919C9111979D0123
:103270002E5F3F4F820F931F2091DF013091E001BD
:103280002817390769F4309729F41092E201109257
:10329000E10102C013821282B093E001A093DF012A
:1032A000DF91CF910895A0E0B0E0E9E5F9E10C9459
:1032B0005E14EC016B016115710519F0FB0191833E
:1032C00080837E01FFEFEF1AFF0A0881802F90E0D4
:1032D0000E94D514892B11F0E701F3CF0D3239F498
:1032E0007E0182E0E80EF11C098111E008C00B327A
:1032F00029F47E0192E0E90EF11C098110E0E7015A
:10330000219743E050E062EB71E0CE010E94AF1ADA
:10331000892BC1F4239645E050E06DEA71E0CE01BF
:103320000E94AF1A892B09F42596C114D10419F013
:10333000F601D183C0831111F6C060E070E080E82F
:103340009FE7FAC043E050E06AEA71E0CE010E94D4
:10335000AF1A892B59F4C114D10409F4E9C0F2E081
:10336000EF0EF11CF601F182E082E2C020E030E0D5
:10337000A901C0E0D0E0F70180EDA82EA00E89E001
:103380008A1530F1912F9260B92E812F887012FF2B
:1033900004C0811124C0219622C081112197A5E08B
:1033A000B0E00E94611BDC01CB01880F991FAA1FAE
:1033B000BB1F9C01AD012A0D311D411D511D283936
:1033C00089E93807480789E1580748F0166006C0C0
:1033D0009EEFA9120AC013FD40C01860B12E8FEFF6
:1033E000E81AF80A00811B2DC6CF802F8F7D853407
:1033F000A1F580818D3211F4106106C08B3221F06D
:10340000319661E070E004C08181329662E070E044
:1034100080538A3018F0E61BF70B1FC060E070E0A5
:1034200060389CE079075CF4DB01AA0FBB1FAA0F90
:10343000BB1F6A0F7B1F660F771F680F711D3196C8
:10344000DF0111978C9180538A3050F314FF03C031
:10345000719561957109C60FD71F11FF08C0C1147E
:10346000D10429F0CF010197F60191838083CA012D
:10347000B9010E943A0F212F2370233019F04B011C
:103480005C0106C04B015C01B7FAB094B7F8B09488
:1034900020E030E0A901C501B4010E942B0E882371
:1034A00009F43EC0D7FF06C0D195C195D10909ECFA
:1034B00011E002C001EE11E06801F8E1CF1AD10875
:1034C00090E2E92EF12CCE15DF0574F0F80125917C
:1034D000359145915491C501B4010E94FF114B01F2
:1034E0005C01CE19DF09EFCF04501109F594E79480
:1034F0000C151D0541F78A2D880F8B2D881F8F3FD6
:1035000049F020E030E0A901C501B4010E942B0E72
:10351000811106C082E290E09093E4018093E30180
:10352000C501B40109C060E070E080E89FEF04C00D
:1035300060E070E080EC9FE7CDB7DEB7ECE00C9484
:103540007A14992788270895FC010590061621F022
:103550000020D9F7C00108953197CF010895FB01EC
:10356000DC014150504088F08D9181341CF08B3546
:103570000CF4805E659161341CF06B350CF4605E78
:10358000861B611171F3990B0895881BFCCFDC0138
:1035900001C06D9341505040E0F70895CF93DF9301
:1035A000EC012B8120FF33C026FF0AC02F7B2B8329
:1035B0008E819F8101969F838E838A8190E029C0AE
:1035C00022FF0FC0E881F9818081082E000C990B41
:1035D000009719F420622B831AC03196F983E8838F
:1035E0000EC0EA85FB85099597FF09C02B810196DE
:1035F00011F080E201C080E1822B8B8308C02E8114
:103600003F812F5F3F4F3F832E83992702C08FEF6B
:103610009FEFDF91CF9108950F931F93CF93DF9387
:10362000FB01238121FD03C08FEF9FEF2CC022FF00
:1036300016C046815781248135814217530744F4CF
:10364000A081B1819D012F5F3F4F318320838C93F7
:10365000268137812F5F3F4F3783268314C08B012C
:10366000EC01FB010084F185E02D0995892BE1F641
:10367000D80116968D919C911797019617969C9359
:103680008E931697CE01DF91CF911F910F910895E0
:10369000FB01238120FF12C026FD10C08F3F3FEFAA
:1036A000930761F082832F7D2064238326813781F5
:1036B0002150310937832683992708958FEF9FEF93
:1036C00008950E946C1BA59F900DB49F900DA49F20
:1036D000800D911D11240895A29FB001B39FC001D8
:1036E000A39F700D811D1124911DB29F700D811D2E
:0A36F0001124911D0895F894FFCFF6
:1036FA000000E50120002B2D782F255E3D282900AA
:10370A00202B2D2F78255E3D2829090D0045727240
:10371A006F72343033004153494E0041434F5300D6
:10372A004154414E0053494E4800434F53480054B8
:10373A00414E48004C4E004C4F47004500535152F1
:10374A00540053515200524F554E4400494E5400B2
:10375A0053796E746178204572726F720052616E8D
:0C376A006765204572726F7200257300C5
:00000001FF
